:040000000200513277
:01000B0032C2
:0100130032BA
:01001B0032B2
:0100230032AA
:01002B0032A2
:01003300329A
:01003B003292
:01004300328A
:03004B000206ADFD
:0F00AA00E4F532F533F534F5357539E002004EE3
:03004E0002058F19
:2000B90075B1677E007F011EBEFF011FEE4F70F7E5B130E7FB75B288227598507589207594
:2000D9008DDCD28E438E10438780D29943A4012275FFDE75FFAD1200B91200D243E1044311
:2000F900E34022AF8210990280FB8F992210980280FB8599821200FC85998222C00F858197
:200119000FE50F24FBF886820886830886F0120E05E5828583F045F070028062E50F24FBF5
:20013900FF8F0BE50F24FBF8860808860908860A90000175F00012077A90000175F00012B4
:200159000E05AE827F00C3EF9E501FEF2401F582E43400F583E0FDBD0A0DEF2401F582E4CA
:200179003400F583740DF00F80DC752801752900752A007527008E2B7582C612042BD00FD1
:200199002275220074C025224017752D22752E00752F40752C007530017582C61204A18035
:2001B900E375230C752823752900752A40752700752B017582C612042B22752D25752E009B
:2001D900752F40752C017530027582C61204A174FFB52505758200805F7F008F068EF005A6
:2001F900F07C017D008006EC2CFCED33FDD5F0F7AA257B00EA5204EB5205EC4D6007743178
:200219002FF58280330E8E07BE080040D0E52630E0057582398021E52630E10575822A8040
:2002390017E52630E205758230800DE52630E30575822380037582FF22AF82E4FDFEEF7071
:200259001DC006C005743DC0E0740EC0E07480C0E0120115158115811581D005D006C0067B
:20027900C0057408C0E0E4C0E07408C0E0E4C0E07408C0E0E4C0E07408C0E0E4C0E07408A4
:20029900C0E0E4C0E07453C0E0740EC0E07480C0E0120115E58124F3F58190A12075F0072C
:2002B900E41203C6D005D0067F00C007C006C0051201D3AC82D005D006D0078C03BCFF0208
:2002D9008003BB2A17902710E4F5F0C007C006C0051203C6D005D006D00780CEBB232AC031
:2002F90006C0051201D3AC82D005D006BC2313902710E4F5F0C006C0051203C6D005D006C8
:2003190080DD8D828E830203C5EBFA3395E0FCC007C006C005C004C003C002C002C004745F
:2003390063C0E0740EC0E07480C0E0120115E58124FBF581D002D003D004D005D0068D1106
:200359008E1290000AC004C003C0021206EDA882A983D002D003D004D007EA28F8EC39F92E
:20037900E824D0FDE934FFFEC007C006C005C0031201D3AC82D003D005D006D007ECB5034F
:200399001B902710E4F5F0C007C006C005C0031203C6D003D005D006D00780CC0FC3EF64E3
:2003B90080948550030202C38D828E8322AC82AD83AEF0FF780079007A007B00C3E89CE91E
:2003D9009DEA9EEB9F500F08B8000909B900050ABA00E90B80E62220C7FDD2C530C3FDC2F9
:2003F900C5C2C3228582C210C30280FB228582C2D2C410C30280FB2230C3FD85C282C2C32E
:200419002230C3FDAFC2C2C3D2C410C30280FB8F8222AF82C0071203F0D00774FE5FF58286
:200439001203FD8527821203FD7F00AD2B7E001DBDFF011E8F037C00C3EB9DEC64808EF0DD
:2004590063F08095F0501FEF2528FCE43529FDAE2A8C828D838EF0120E1DF582C007120341
:20047900FDD0070F80C5AE2B7F001EBEFF011FEE2528FEEF3529FFAD2A8E828F838DF012DB
:200499000E1DF58212040622AF82C0071203F0D0078F0674FE5EF582C0071203FD852C82A7
:2004B9001204061203F0D00774014FF5821203FD7F00AD307E001DBDFF011E8F037C00C33B
:2004D900EB9DEC64808EF063F08095F0502ED2C2EF252DFCE4352EFDAE2FC007C006C00513
:2004F900C004120411AB82D004D005D006D0078C828D838EF0EB1206D20F80B6C2C2AE305D
:200519007F001EBEFF011FEE252DFEEF352EFFAD2FC007C006C00512041AAC82D005D00682
:20053900D0078E828F838DF0EC1206D222753123752831752900752A40752720752B01754E
:20055900823012042B753100752831752900752A40752721752B0175823012042B75310032
:20057900752831752900752A40752722752B0175823012042B221200E97582201200FC12FC
:20059900069312069A12069E1206CC7466C0E0740EC0E07480C0E012082915811581158128
:2005B9007532C875330A75EC3875FCF5753851752838752900752A40752700752B018539B7
:2005D9008212042BE4F534F535C374059534E49535400B12066D85823685833780EB30B6B8
:2005F900087532C875330A803D8536118537129000121206EDAE82AF837463C39EF5327486
:200619000E9FF533C374AC9532740D953350067532AC75330DC3E53294EEE5339407500636
:200639007532EE753307C032C033C036C037748DC0E0740EC0E07480C0E0120829E5812467
:20065900F9F58174FFC39532F5EC74FF9533F5FC0205C522752D3A752E00752F40752C0214
:200679007530027582E01204A1AF3A7E00AC3B7D00EC4EF582ED4FF5832243A50453A7BF35
:200699002275E1272243D84043D90143DCC243E608D2AF22C0E0C0D030DF100534E4B534FE
:1906B900020535C2DF75E90075F97053D8C0D0D0D0E03275CF93D2C62211
:200E3D000A54797065206469676974733B20656E6420772F230020202020202563256325F5
:200E5D006325632563002563000D456D62656464656420436F6E74726F6C20447269766548
:200E7D00204D6F746F7220436F6E74726F6C0A000D0A52616E67653A20257520202050571A
:050E9D003A202575005C
:06008000E478FFF6D8FD54
:20005E007900E94400601B7A00900EAD785175AF00E493F2A308B8000205AFD9F4DAF2751F
:02007E00AFFFD2
:1B06D20020F71130F6138883A88220F509F6A8837583002280FEF280F5F02227
:1D06ED00E5828511F0A4C582C0F08512F0A4D0F025F0C5838511F0A42583F58322B4
:20070A00C00F85810FC082058105810581E50F24FBF8A90F0909E6F70809E6F70809E6F789
:20072A00A80F080886820886830886F0120E1DFAA3120E1DFBA3120E1DFF74012AFCE43BA6
:20074A00FD8F06A80F080886820886830886F0EC1206D2A3ED1206D2A3EE1206D28A828B3D
:20076A00838FF0A80F08E61206D2850F81D00F2285820C85830D85F00E75480C7549007521
:20078A004A4085084B85094C850A4D850B4E90070A1208FBAE82AF83AB0CAC0DAD0E8B8209
:2007AA008C838DF0E41206D28E828F8322C00F85810FE50F24F8FF8F4EE50F24FBFF8F48D8
:2007CA00754900754A40E50F24F8F8864B08864C08864D90070A1208FBAE82AF83E50F2494
:1B07EA00FBF886030886040886058B828C838DF0E41206D28E828F83D00F22C9
:200086007800E84400600A790175AF00E4F309D8FC7850E84400600C7901900001E4F0A318
:0400A600D8FCD9FAAF
:20080500C00F85810F1200FCD00F2285824B85834C85F04DE4F548F549F54A85104E90085F
:20082500050208FBC00F85810FE50F24FBFF8F4EE4F548F549F54AE50F24FBF8864B0886CE
:0D0845004C08864D9008051208FBD00F22CC
:20085200AF82C03EC03FC04012085F8007C03CC03D8F82221581158115810546E4B546023E
:20087200054722AF8274302FFF24C6500A74072FFF3000034307208F82020852E582FFC4D4
:20089200540FF582C007120875D007740F5FF582020875858211854112854213854314853C
:2008B2004415AA45751620EA2AFAE515235401FF8A064EFAE5122512F512E51333F513E58F
:2008D2001433F514E51533F515C3EA95114008EAC39511FA431201D516CD851241851342D7
:2008F2008514438515448A452285823C85833D85483E85493F854A40E4F546F547AD4BAE8B
:200912004CAF4D8D828E838FF0120E1DFC74012DF54BE43EF54C8F4DECFF7003020DFEBF5A
:2009320025028003020DF6C201C202C203C204C205C206C207C208754F007550007CFFAA14
:200952004BAB4CAE4D8A828B838EF0120E1DFFA3AA82AB838A4B8B4C8E4DBF25078F8212E2
:20097200085280998F5274D025525026E55224C64020BCFF12E55075F00AA4FD2F24D0F535
:200992005070C2D20280BEEC75F00AA42F24D0FC80B3BF2E07BCFFAD7C0080A98F05BD61AD
:2009B20000400CED248540075307DFD2008002C200BF2002806DBF2B028063BF2D02805949
:2009D200BF42028063BF43028068BF4403020BA0BF4603020BB6BF4803020957BF4903023C
:2009F2000BA0BF4A03020957BF4C028040BF4F03020BA7BF5003020B35BF5302805CBF54E3
:200A120003020957BF5503020BACBF5803020BB1BF5A03020957020BBAD201020957D20368
:200A3200020957D204020957D206020957D20702095730060CE54E14FE8E4E8E0187078095
:200A520011E54E24FEFE8E4E8E018705098706198D078F82120852020BC3E54E24FDFE8EB9
:200A72004E8E01870309870509870619198B418D428E438B828D838EF0C004120E05AD8281
:200A9200AE83D004BCFF028D0420012AC3ED95505024E550C39DF550AE508E031EEB6014B7
:200AB200758220C006C005C004120852D004D005D00680E68E508C068541828542838543A3
:200AD200F0120E1DFCFF602F8E041EC374808CF063F08095F050208F82C006C0051208529A
:200AF200D005D006AA41AB42AC430ABA00010B8A418B428C4380C1200103020BC3C3ED95C1
:200B1200504003020BC3E550C39DF550AE508E041EEC7003020BC1758220C006120852D092
:200B32000680EBE54E24FDFC8C4E8C01870209870309870419198A418B428C43AC43BC8007
:200B52000040047F438014BC600040047F50800BBC400040047F4980027F588F82C00712E4
:200B7200085275823A120852758230120852758278120852D007BF4902800BBF50028006FB
:200B920085428212088E85418212088E8023D205754F0A801C754F088017754F0A80127546
:200BB2004F10800DD20880098F8212085280028E5030085CE54E24FCFE8E4E8E0187020915
:200BD20087030987040987061919198A418B428C438E447541A275420E75438085415385D8
:200BF200425485435574012553FAE43554FCAE558A418C428E438553828554838555F012E1
:200C12000E1DFEFF700302090F8F8212085280CCE54F700302090F75511C30062DE54E14F7
:200C3200FC8C4E8C01E7FA3395E0FBFCFE8A418B428C438E44200566AA417B007C007E009D
:200C52008A418B428C438E448054300721E54E24FCFE8E4E8E018702098703098704098721
:200C7200061919198A418B428C438E448030E54E24FEFE8E4E8E01870409870619EE33957A
:200C9200E0FBFA8C418E428B438A44200510AA41AB427C007E008A418B428C438E443005BF
:200CB20022E54430E71BC3E49541FAE49542FBE49543FCE49544FE8A418B428C438E44804C
:200CD20002C205D209A9517E00754500854F82C006C0011208A5D001D00620090BE545C4C7
:200CF200FCE7FB4CF7198002A7450EB209E54145424543454470D289518E05E550700375E7
:200D12005001200224200121ED04FEAC50C3EE9C5015758220C006C005C004120852D004A5
:200D3200D005D0061C80E68C5030050E75822DC005120852D00515508023ED602030030E75
:200D520075822BC005120852D0051550800F30040C758220C005120852D005155020012260
:200D7200AE508E041EC3ED9C502B3002047C3080027C208C82C006C005120852D005D0063C
:200D920080E0C3ED95505008E550C39DF550800775500080028E50A9518D068E051EED60E3
:200DB20026B20920090A09E7C4540FFD8D4580078705740F5DF545854582C006C00112080D
:200DD20075D001D00680D420010302090FAE508E051EED700302090F758220C006120852E1
:130DF200D00680EB8F8212085202090F8546828547832258
:0B0EA2003C4E4F20464C4F41543E0098
:180E0500AA82AB83120E1D6003A380F8C3E5829AF582E5839BF58322E8
:0D005100758155120E39E582600302004EE4
:1C0E1D0020F71430F6148883A88220F507E6A88375830022E280F7E49322E022E4
:040E3900758200229C
:00000001FF
