:03000000020006F5
:10005F00E4F508F509F50AF50BF50CF50D020003AB
:030003000200CB2D
:20006F0075B1677E007F011EBEFF011FEE4F70F7E5B130E7FB75B2882275985075892075DE
:20008F008DDCD28E438E10438780D29943A4012275FFDE75FFAD12006F12008843E10443EF
:2000AF00E34022AF8210990280FB8F992210980280FB8599821200B28599822212009F75DA
:2000CF0082201200B21200DD1200ED80FB2243A7D853A7DD43B0F253A6FE43A0F1221202A1
:2000EF0080AE82AF83C007C00612028CAC82AD83C005C004120298AA82AB83D004D005D07C
:20010F0006D007EAB50C06EBB50D02806EEA4B6037C2B6D2B3D2B4D2B7C007C006C005C0BB
:20012F0004C003C00274DCC0E07408C0E07480C0E01202C8158115811581D002D003D00470
:20014F00D005D006D007802FC007C006C005C004C003C0027431C0E07409C0E07480C0E0CE
:20016F001202C8158115811581D002D003D004D005D006D007D2B68A0C8B0DEEB5080FEF78
:20018F00B5090BECB50A07EDB50B0302027FEA4B600302027FEE4F6032EC4D602EC2B7C2B6
:2001AF00B3C2B4C007C006C005C0047470C0E07409C0E07480C0E01202C81581158115811E
:2001CF00D004D005D006D007020277EE4F6031EC4D702DD2B7C2B3D2B4C007C006C005C005
:2001EF000474A3C0E07409C0E07480C0E01202C8158115811581D004D005D006D0078068A8
:20020F00EE4F7031EC4D602DD2B7D2B3C2B4C007C006C005C00474D6C0E07409C0E0748096
:20022F00C0E01202C8158115811581D004D005D006D0078033EC4D702FEE4F702BD2B7D25D
:20024F00B3D2B4C007C006C005C0047407C0E0740AC0E07480C0E01202C8158115811581D5
:20026F00D004D005D006D0078E088F098C0A8D0B2220B00590000180039000002220B1052A
:15028F0090000180039000002230A005900001800390000022F9
:2008DC000D536C696465207377697463682068617320737769746368656420746F206F667D
:2008FC00662E204C45442030207475726E6564206F6E20616E642065766572797468696E03
:20091C006720656C7365207475726E6564206F66662E200A000D536C696465207377697441
:20093C0063682068617320737769746368656420746F206F6E2C2077616974696E67206634
:20095C006F72206F7468657220696E7075742E2E2E200A000D426F746820627574746F6EFE
:20097C007320617265207072657373656420696E2E205475726E696E67206F6E2062757AE0
:20099C007A65722E200A000D427574746F6E2031206973207072657373656420696E2E2061
:2009BC005475726E696E67206F6E20677265656E2042694C45442E200A000D427574746FF3
:2009DC006E2032206973207072657373656420696E2E205475726E696E67206F6E20726509
:2009FC00642042694C45442E200A000D426F746820627574746F6E732072656C65617365B5
:200A1C00642E205475726E696E67206F66662062757A7A657220616E642042694C4544739E
:040A3C002E200A005E
:06003500E478FFF6D8FD9F
:200013007900E94400601B7A00900A4B780175AF00E493F2A308B8000205AFD9F4DAF27520
:02003300AFFF1D
:20003B007800E84400600A790175AF00E4F309D8FC7800E84400600C7900900001E4F0A3B4
:04005B00D8FCD9FAFA
:2002A400C00F85810F1200B2D00F2285823185833285F033E4F52EF52FF530850E349002CE
:2002C400A402039AC00F85810FE50F24FBFF8F34E4F52EF52FF530E50F24FBF8863108867E
:0D02E400320886339002A412039AD00F2234
:2002F100AF82C024C025C0261202FE8007C022C0238F8222158115811581052CE4B52C02C2
:20031100052D22AF8274302FFF24C6500A74072FFF3000034307208F820202F1E582FFC4BB
:20033100540FF582C007120314D007740F5FF58202031485821085271185281285291385C0
:200351002A14AA2B751520EA2AFAE514235401FF8A064EFAE5112511F511E51233F512E531
:200371001333F513E51433F514C3EA95104008EAC39510FA431101D515CD8511278512287B
:2003910085132985142A8A2B22858222858323852E24852F25853026E4F52CF52DAD31AE5F
:2003B10032AF338D828E838FF01208BCFC74012DF531E43EF5328F33ECFF700302089DBF10
:2003D10025028003020895C201C202C203C204C205C206C207C2087535007536007CFFAA15
:2003F10031AB32AE338A828B838EF01208BCFFA3AA82AB838A318B328E33BF25078F82124C
:2004110002F180998F3874D025385026E53824C64020BCFF12E53675F00AA4FD2F24D0F56A
:200431003670C2D20280BEEC75F00AA42F24D0FC80B3BF2E07BCFFAD7C0080A98F05BD612D
:2004510000400CED248540075307DFD2008002C200BF2002806DBF2B028063BF2D028059AF
:20047100BF42028063BF43028068BF440302063FBF4603020655BF48030203F6BF490302D5
:20049100063FBF4A030203F6BF4C028040BF4F03020646BF50030205D4BF5302805CBF54E3
:2004B100030203F6BF550302064BBF5803020650BF5A030203F6020659D2010203F6D20336
:2004D1000203F6D2040203F6D2060203F6D2070203F630060CE53414FE8E348E01870780CC
:2004F10011E53424FEFE8E348E018705098706198D078F821202F1020662E53424FDFE8E3B
:20051100348E01870309870509870619198B278D288E298B828D838EF0C0041208A4AD82B6
:20053100AE83D004BCFF028D0420012AC3ED95365024E536C39DF536AE368E031EEB601485
:20055100758220C006C005C0041202F1D004D005D00680E68E368C068527828528838529D8
:20057100F01208BCFCFF602F8E041EC374808CF063F08095F050208F82C006C0051202F1CE
:20059100D005D006AA27AB28AC290ABA00010B8A278B288C2980C1200103020662C3ED9529
:2005B100364003020662E536C39DF536AE368E041EEC7003020660758220C0061202F1D094
:2005D1000680EBE53424FDFC8C348C01870209870309870419198A278B288C29AC29BC800A
:2005F1000040047F438014BC600040047F50800BBC400040047F4980027F588F82C007124B
:2006110002F175823A1202F17582301202F17582781202F1D007BF4902800BBF50028006FD
:2006310085288212032D85278212032D8023D20575350A801C753508801775350A801275FA
:200651003510800DD20880098F821202F180028E3630085CE53424FCFE8E348E018702094A
:2006710087030987040987061919198A278B288C298E2A75274075280A752980852739858E
:20069100283A85293B74012539FAE4353AFCAE3B8A278C288E29853982853A83853BF01299
:2006B10008BCFEFF70030203AE8F821202F180CCE53570030203AE75371B30062DE5341449
:2006D100FC8C348C01E7FA3395E0FBFCFE8A278B288C298E2A200566AA277B007C007E00A0
:2006F1008A278B288C298E2A8054300721E53424FCFE8E348E018702098703098704098724
:20071100061919198A278B288C298E2A8030E53424FEFE8E348E01870409870619EE33957C
:20073100E0FBFA8C278E288B298A2A200510AA27AB287C007E008A278B288C298E2A300529
:2007510022E52A30E71BC3E49527FAE49528FBE49529FCE4952AFE8A278B288C298E2A809C
:2007710002C205D209A9377E00752B00853582C006C001120344D001D00620090BE52BC4FB
:20079100FCE7FB4CF7198002A72B0EB209E52745284529452A70D289378E05E53670037503
:2007B1003601200224200121ED04FEAC36C3EE9C5015758220C006C005C0041202F1D004A7
:2007D100D005D0061C80E68C3630050E75822DC0051202F1D00515368023ED602030030E77
:2007F10075822BC0051202F1D0051536800F30040C758220C0051202F1D0051536200122C9
:20081100AE368E041EC3ED9C502B3002047C3080027C208C82C006C0051202F1D005D00623
:2008310080E0C3ED95365008E536C39DF536800775360080028E36A9378D068E051EED60E5
:2008510026B20920090A09E7C4540FFD8D2B80078705740F5DF52B852B82C006C0011203C6
:2008710014D001D00680D42001030203AEAE368E051EED70030203AE758220C0061202F1F7
:13089100D00680EB8F821202F10203AE852C82852D8322C0
:0B0A40003C4E4F20464C4F41543E00FE
:1808A400AA82AB831208BC6003A380F8C3E5829AF582E5839BF58322B6
:0D00060075813B1208D8E5826003020003FB
:1C08BC0020F71430F6148883A88220F507E6A88375830022E280F7E49322E0224B
:0408D8007582002203
:00000001FF
