:040000000200513277
:01000B0032C2
:0100130032BA
:01001B0032B2
:0100230032AA
:01002B0032A2
:01003300329A
:01003B003292
:01004300328A
:03004B00020BBDE8
:2000AA007533DC75340A75351075360975373475380DE4F539F53AF53BF53C753DE0753E10
:0400CA00C002004E22
:03004E000205A404
:2000CE0075B1677E007F011EBEFF011FEE4F70F7E5B130E7FB75B28822759850758920757F
:2000EE008DDCD28E438E10438780D29943A4012275FFDE75FFAD1200CE1200E743E10443D2
:20010E00E34022AF8210990280FB8F992210980280FB85998212011185998222C018858162
:20012E0018E51824FBF886820886830886F0121B75E5828583F045F070028062E51824FB48
:20014E00FF8F14E51824FBF8861108861208861390000175F0001213E090000175F0001200
:20016E001B75AE827F00C3EF9E501FEF2401F582E43400F583E0FDBD0A0DEF2401F582E438
:20018E003400F583740DF00F80DC752901752A00752B007528008E2C7582C6120440D01899
:2001AE002275230074C025234017752E23752F00753040752D007531017582C61204B68003
:2001CE00E375240C752924752A00752B40752800752C017582C612044022752E26752F0067
:2001EE00753040752D017531027582C61204B674FFB52605758200805F7F008F068EF00578
:20020E00F07C017D008006EC2CFCED33FDD5F0F7AA267B00EA5204EB5205EC4D6007743161
:20022E002FF58280330E8E07BE080040D0E52730E0057582398021E52730E10575822A8029
:20024E0017E52730E205758230800DE52730E30575822380037582FF22AF82E4FDFEEF705A
:20026E001DC006C00574ADC0E0741BC0E07480C0E012012A158115811581D005D006C006D4
:20028E00C0057408C0E0E4C0E07408C0E0E4C0E07408C0E0E4C0E07408C0E0E4C0E074088F
:2002AE00C0E0E4C0E074C3C0E0741BC0E07480C0E012012AE58124F3F58190A12075F00785
:2002CE00E41203DBD005D0067F00C007C006C0051201E8AC82D005D006D0078C03BCFF02C9
:2002EE008003BB2A17902710E4F5F0C007C006C0051203DBD005D006D00780CEBB232AC007
:20030E0006C0051201E8AC82D005D006BC2313902710E4F5F0C006C0051203DBD005D00688
:20032E0080DD8D828E830203DAEBFA3395E0FCC007C006C005C004C003C002C002C0047435
:20034E00D3C0E0741BC0E07480C0E012012AE58124FBF581D002D003D004D005D0068D1A56
:20036E008E1B90000AC004C003C002121353A882A983D002D003D004D007EA28F8EC39F99D
:20038E00E824D0FDE934FFFEC007C006C005C0031201E8AC82D003D005D006D007ECB50325
:2003AE001B902710E4F5F0C007C006C005C0031203DBD003D005D006D00780CC0FC3EF64B9
:2003CE0080948550030202D88D828E8322AC82AD83AEF0FF780079007A007B00C3E89CE9F4
:2003EE009DEA9EEB9F500F08B8000909B900050ABA00E90B80E62220C7FDD2C530C3FDC2E4
:20040E00C5C2C3228582C210C30280FB228582C2D2C410C30280FB2230C3FD85C282C2C318
:20042E002230C3FDAFC2C2C3D2C410C30280FB8F8222AF82C007120405D00774FE5FF5825B
:20044E001204128528821204127F00AD2C7E001DBDFF011E8F037C00C3EB9DEC64808EF09A
:20046E0063F08095F0501FEF2529FCE4352AFDAE2B8C828D838EF0121B8DF582C0071204AB
:20048E0012D0070F80C5AE2C7F001EBEFF011FEE2529FEEF352AFFAD2B8E828F838DF012AD
:2004AE001B8DF58212041B22AF82C007120405D0078F0674FE5EF582C007120412852D82D3
:2004CE0012041B120405D00774014FF5821204127F00AD317E001DBDFF011E8F037C00C3E4
:2004EE00EB9DEC64808EF063F08095F0502ED2C2EF252EFCE4352FFDAE30C007C006C005FB
:20050E00C004120426AB82D004D005D006D0078C828D838EF0EB1213380F80B6C2C2AE31BE
:20052E007F001EBEFF011FEE252EFEEF352FFFAD30C007C006C00512042FAC82D005D00655
:20054E00D0078E828F838DF0EC12133822753223752932752A00752B40752820752C0175BF
:20056E008230120440753200752932752A00752B40752821752C01758230120440753200EB
:20058E00752932752A00752B40752822752C0175823012044022E4F541F542F54DF54EF533
:2005AE004F75503F755105F5521200FE758220120111120B73120B9E120BA2120BE4120B55
:2005CE009174D6C0E0741BC0E0120BEA1581158174EFC0E0741BC0E0120BEA15811581E4E7
:2005EE00F539F53AC3E5399414E53A940040F51209318582478583481201AF74FFC3953375
:20060E00FE74FF9534FF74902EF5EB74013FF5FBE4F539F53A1208F8AE82AF837410C39E43
:20062E00F54B740E9FF54C1208AA85825385835412091EAB828B55755600C374469553E436
:20064E009554500885474985484A8053C374289553E49554502585531A85541B9000321209
:20066E001353E5828583F02430FEE5F034F8FFEE2547F549EF3548F54A802485531A8554A3
:20068E001B900032121353AE82AF8374D0C39EFE74079FFFE547C39EF549E5489FF54AE51E
:2006AE0049C3954BF53FE54A954CF540C37408953F74878540F063F08095F0500CE53F2408
:2006CE00F0F53FE54034F1F540C3E53F94F8E54064809478500C7410253FF53F740E354072
:2006EE00F540A83FE540F93395E0FAFB888289838AF0C003C002C001C0001211B2AC82ADCF
:20070E0083AEF0FFC004C005C006C007854D82854E83854FF0E55012106BAC82AD83AEF069
:20072E00FFE58124FCF5818C828D838EF0EF1211DF85825785835885F059F55AD000D001A7
:20074E00D002D003AC41E542FD3395E0FEFFE8C39CF51AE99DF51BEA9EF51CEB9FF51DA867
:20076E0051A9527E007F00888289838EF0EF12146BAC82AD83AEF0FFA833A934E4FAFBE89A
:20078E00C39557F8E99558F9EA9559FAEB955AFBE8C39CF543E99DF544EA9EF545EB9FF5AF
:2007AE0046853F41854042A837A9387A007B00C3E89543E99544EA9545EB64808546F0632E
:2007CE00F08095F0500C853743853844754500754600A835A9367A007B00C3E54398E544E8
:2007EE0099E5459AE54664808BF063F08095F0500C85354385364475450075460074FFC3A9
:20080E009543F874FF9544F9E49545E49546885B895C855BEA855CFAAA33AB34E4FEFFE549
:20082E0043C39AF8E5449BF9E5459EFCE5469FFDEAC398FAEB99FBEE9CFEEF9DFF74FFC3C3
:20084E009AFA74FF9BFBE49EE49F8AED8BFD855BEC855CFC751A03751B00853B82853C8398
:20086E001214D9E5828583F045F0600302061EC055C056C043C044C045C046C04BC04CC03A
:20088E0053C054C049C04A7412C0E0741CC0E0120BEAE58124F2F58102061E22755D5175A1
:2008AE00295D752A00752B40752800752C01853D82120440E4F539F53AC3E5399405E53A72
:2008CE00940040F5752E5D752F00753040752D02753102853D821204B6AF5D7E00AC5E7D4B
:2008EE0000EC4EF582ED4FF58322752E5F752F00753040752D02753102853E821204B6AFCC
:20090E005F7E00AC607D00EC4EF582ED4FF58322AFAA74DF5FF5AA43AA10E5AA30E5FB8511
:20092E009C82221201AF7431C0E0741CC0E07480C0E012012A1581158115817446C0E074D1
:20094E001CC0E07480C0E012012A158115811581745BC0E0741CC0E07480C0E012012A15B5
:20096E0081158115817470C0E0741CC0E07480C0E012012A158115811581120AB6AF82BFB3
:20098E002A028003BF23F3BF2A028003020A1B1201AF747AC0E0741CC0E07480C0E0120109
:2009AE002A158115811581748FC0E0741CC0E07480C0E012012A15811581158174A4C0E01F
:2009CE00741CC0E07480C0E012012A158115811581120AB6AF82BF3102800DBF3202800849
:2009EE00BF33028003BF34E9BF31077D007E00020A90BF32077D847E03020A90BF33077D7C
:200A0E00087E07020A907D8C7E0A020A901201AF74B9C0E0741CC0E07480C0E012012A15CD
:200A2E008115811581120B0AAD82AE838D1A8E1B90000A121353AD82AE83C374109D740E4C
:200A4E009E503F1201AF74D1C0E0741CC0E07480C0E012012A15811581158174E6C0E07483
:200A6E001CC0E07480C0E012012A158115811581E4F539F53AC3E5399464E53A940040F517
:200A8E00808BC006C005C005C00674FBC0E0741CC0E07480C0E0121599E58124FBF581D0C9
:200AAE0005D0068D828E83221201E8AF82E4F539F53AC3E5399405E53A940040F5BFFF1767
:200ACE001201E8AF82E4F539F53AC3E5399405E53A940050E880F38F06BFFF02801BC0060D
:200AEE001201E8AF82D006E4F539F53AC3E5399405E53A940050E280F38E82227561207536
:200B0E0062207563207F00C007120AB6AE82D007BE2A02800DBE23028008EF2461F8A60634
:200B2E00800EBE23028034BE2A06EF2461F8762EEF2461F987067D00C007C006C00574D374
:200B4E00C0E0741BC0E07480C0E012012AE58124FBF581D0070FBF030040AC90006175F002
:200B6E004012123A2253BDDF43A50143A504AF9074204FF59053A7BFAFA7747F5FF5A743FC
:200B8E00B0802275D10375AA8043AB0175AC052275E1272253D9F143D90143D84043DAC2C3
:200BAE0043DBC243DCC243DDC243E608D2AF22C0E0C0D030DF180539E4B53902053A053BC8
:1C0BCE00E4B53B02053CC2DF75E90075F97053D8C0D0D0D0E03275CF93D2C62219
:201BAD000A54797065206469676974733B20656E6420772F23002020202020256325632578
:201BCD006325632563002563000A0D5374617274696E672070726F6772616D2E2E2E200ACE
:201BED000D0044657348207C20526E6765207C2048656164207C204D6F5057207C20566F51
:201C0D006C740A0D00253464207C20253464207C20253464207C2025346C64207C20253417
:201C2D00640A0D0053656C656374202A20746F2073656C65637420610068656164696E677E
:201C4D002E2053656C656374202320746F006D616E75616C6C79207479706520612020205D
:201C6D0020200068656164696E672E200048656164696E677320617661696C61626C653ADB
:201C8D0020002020202020312D30202020322D3930202020202000202020332D31383020A8
:201CAD002020342D3237302020202000496E7075742068656164696E67206E6F773A20206F
:201CCD00202020002020202020202020202020202020202020202020002020496E76616CDD
:201CED0069642068656164696E67212020000A0D446573697265642048656164696E673AD8
:041D0D002025750018
:200BEA00C018858118E51824FDF8868318868218E493A3B42577C200C201C202C203C20460
:200C0A00C20579087700C206E493A324C64017240A50157005B50802D205D204FAE775F02E
:200C2A000AA42AF780E2240A2430B46C04D20080D7B46804D20180D0B47303020C82B46495
:200C4A0006120F5C020CDEB47506120F5C020CFEB4630518E6188017B47803020CBDB46686
:200C6A0003020E12B42E0679097700809B600612104E020BFA021068C083C08286F0188659
:200C8A008318868218300419C205C082C083121B8D6007A31508E50870F4121039D083D046
:200CAA0082121B8D6006A312104E80F5D082D083020BFA120CD520010C120CD530000612F9
:200CCA000CD5120CD5121060020BFAE612103EE61802103FED30E71CD203E9F42401F92008
:200CEA000112EAF43400FA30000AEBF43400FBECF43400FC200110300008EB7024EC70210E
:200D0A00C200EA701CD201E97017200614300409E50860051508121039743012104E020BEC
:200D2A00FAC082C083120F76300460790A30001DEB54F0703619EB540F703019EA54F0709C
:200D4A002A19EA540F702419EF54F0701E790520010BEF540F701419EE54F0700E7903EED8
:200D6A00540F700719ED54F0700119E508A203994019F508C003C002C007C006C005121041
:200D8A0039D005D006D007D002D003300319C003C002C007C006C005742D12104ED005D010
:200DAA0006D007D002D00320014030002CC005C006C0078A82EBF58312103EE58312103F00
:200DCA00E58212103EE58212103FD0E0F58212103EE582D083D08280058D828E83EF121031
:200DEA003FE58312103EE58380038D82EE12103FE58212103EE58212103F121060D083D065
:200E0A008230060122020BFA30040EE508D39509F50850287508008023E6547FFA1886035D
:200E2A0008AE82AF83901EDD7D07E4932BA3E4933A5003A3DDF48D098E828F83C000120FD9
:200E4A003EC082C083EFB47E02801940112482FDC3EA33FAEB33FBEC33FCDDF48006F42498
:200E6A007F12113C75F01BE4F8FFFEFD901E71E933F9EA33FAEB33FBEC33FC5017E4932DAA
:200E8A00D4FD7401933ED4FE7402933FD4FF74039338D4F8A3A3A3A3D5F0D4E47C50FBFA6C
:200EAA00F9E509232354FC888312113CED29D4F50DEE3AD4F50CEF3BD4F50BE5833CD4F5ED
:200ECA000A92D5D083D082D000120F3EC000C3749E9F5005D000020C12C08212113CD08257
:200EEA0030D50FE92401F9E43AFAE43BFBE43CFC40E2D206120CFE20040CE5096008120FC2
:200F0A002E7003D509F4E5096015742E12104E7800D20208E8120F2E12103FE8B509F4D089
:200F2A0000020BFA14C31392D5240AF9E720D501C4540F22E618F9E618FC33E9339203FF2E
:200F4A006003430480E618FBE618FA7900C201D20022E6F9FD18200112AA01E6F918300043
:200F6A000AAC02AB01E6FA18E6F91822E975F06484FE740AC5F084C445F0FD30010122EAD3
:200F8A00540FF9901D11932DD4FDE94410933ED4FEEAC4540FF9901D31932DD4FDE9441006
:200FAA00933ED4FEE94420933400D4FF20000122EB540FF9901D61932DD4FDE94410933E66
:200FCA00D4FEE94420933FD4FFE43400FAEBC4540FF9901D91932DD4FDE94410933ED4FE77
:200FEA00E94420933FD4FFE94430933AD4FAEC540FF9901DD17B0012100CECC4540FF990F2
:20100A001E21932DD4FDE94410933ED4FEE94420933FD4FFE94430933AD4FAE94440933BF1
:20102A00D4FB227420300502743012104E1508E50870F022C4540F7003300219D2022490DD
:20104A00D43440D4C083C082C000F582120111D000D082D083222002FC743002104ED018E9
:01106A002263
:201D110000561268248036924804601672288440000205071012151720232528303335389A
:201D310000969288848076726864605652484440004081226304458627680950913273140F
:201D51000000000101020202030304040405050600367208448016528824609632680440EC
:201D7100005510662176328742985308641975300006131926323945525865727885919831
:201D91000076522804805632088460361288644000857157432814008671574329140086B6
:201DB100000409141924293438434853586368720001020304050607080910111213141510
:201DD100001632486480961228446076920824400072441688603205774921936538108208
:201DF100007755331088664421997754321088650016335067830017345067840118345136
:201E1100000000000000010101010101020202020056126824803692480460167228844047
:201E3100005409631872278136914500540963180043873074176104489135792266095366
:201E5100006836057342107947158452218958260002050810131618212426293234374065
:201E7100000000500000002500005012000025060050120300255601501278002506390030
:201E9100125319005676090028880400144402000722010004610000523000002615000084
:201EB100630700008103000091010000950000004800000024000000120000000600000078
:1A1ED1000300000001000000010000007DC5DDC334C2E0BE38BD86BBE4B9A9
:20106B0012110EBC0003021547EF60FA30D502B2D1E583B4FF0302155DE582B4FF0302157E
:20108B005D258340072482400B021547248314500302155DF582EA8DF0A4A8F0EA8EF0A402
:2010AB0028F8E435F0F9EB8DF0A428E935F0F9E433CA8FF0A429F9EA35F0FAEBF88EF0A494
:2010CB0029F9EA35F0FAE433FBEC8DF0A429F9EA35F0FAE43BFBE88FF0A42AFAEB35F0FB3C
:2010EB00E433CCFD8EF0A42AFAEB35F0FBE43CFCED8FF0A42BFBEC35F0FC20E70312117FA9
:03110B00021526A4
:20110E00AA82AB83A2F73392D1F5826002D2F7ACF0E58124F9F8E6FD08E6FE0886F008E644
:0E112E00A2F73392D5F5836002D2F7AFF0221C
:06008000E478FFF6D8FD54
:20113C006040F82582500274FFF582E824F8501ECCCBCAF9E4CC24F85014CBCAF9E4CB24BB
:20115C00F8500BCAF9E4CA24F8500379002224086010F8C3EC13FCEB13FBEA13FAE913F96E
:03117C00D8F12285
:20117F007804EC7011E58224F8500AF582E4C9CACBFCD8EF22EC7820058220E713D582016F
:13119F0022C3E933F9EA33FAEB33FBEC33FCD8EA1582227D
:2011B200FCABF0AA83A982749EF582C2D1EC30E716D2D1E9F42401F9EAF43400FAEBF4343C
:0D11D20000FBECF43400FC12117F02152626
:2011DF00121326C3749E95824039790012113C30D126E9F42401F582EAF43400F583EBF45F
:2011FF003400F5F0ECF43400700AE582458345F0700122E430E70F22EC20E71489828A83E7
:1B121F008BF02230D10AE4F582F583F5F074802274FFF582F583F5F0747F22E2
:20123A00AD82AE83AFF07B007C008D008E018F02888289838AF0121B8DF50E6035C374B91F
:20125A00850EF063F08095F04008E50E648094B05020888289838AF0121B8DF50E742DB523
:20127A000E02800E742BB50E02800708B800C10980BE880589068A07888289838AF0121B99
:20129A008DFAE4BA2D0104F9F87003BA2B050DBD00010E8D828E838FF0121B8DFA6058C3E8
:2012BA00EA648094B0405074B98AF063F08095F04045C0008B1A8C1B90000AC007C006C0FB
:2012DA0005C002C00012135385820F858310D000D002D005D006D007EAF93395E0FAE92411
:2012FA00D0F9EA34FFFAE9250FFBEA3510FC0DBD00010ED000809CE86009C3E49BFEE49CDB
:0C131A00FF80048B068C078E828F8322DC
:20005E007900E94400601B7A00901EF6785175AF00E493F2A308B8000205AFD9F4DAF275C6
:02007E00AFFFD2
:12132600AA82AB83A2F73392D1F5826002D2F7ACF022CC
:1B13380020F71130F6138883A88220F509F6A8837583002280FEF280F5F022B4
:1D135300E582851AF0A4C582C0F0851BF0A4D0F025F0C583851AF0A42583F5832226
:20137000C018858118C082058105810581E51824FBF8A9180909E6F70809E6F70809E6F7F3
:20139000A818080886820886830886F0121B8DFAA3121B8DFBA3121B8DFF74012AFCE43BB4
:2013B000FD8F06A818080886820886830886F0EC121338A3ED121338A3EE1213388A828B69
:2013D000838FF0A81808E6121338851881D0182285821585831685F01775701575710075AD
:2013F000724085117385127485137585147690137012166BAE82AF83AB15AC16AD178B82A0
:201410008C838DF0E41213388E828F8322C018858118E51824F8FF8F76E51824FBFF8F707E
:20143000757100757240E51824F8F8867308867408867590137012166BAE82AF83E5182457
:1B145000FBF886030886040886058B828C838DF0E41213388E828F83D01822DA
:20146B00AAF0FBE582851AF0A4FCADF0E583851AF0A42DFDE435F0FEE582851BF0A42DFD08
:20148B00E5F03EFEE433FFEA851AF0A42EFEE5F03FFFE583851BF0A42EFEE5F03FFFE5827C
:2014AB00851CF0A42EFEE5F03FFFEB851AF0A42FFFEA851BF0A42FFFE583851CF0A42FFF4A
:0E14CB00E582851DF0A42F8EF08D838C822289
:2014D900E51A451B60467A01E51A25E0F51AE51B334012F51BE582951AE583951B40030A50
:2014F90080E6C3E51B13F51BE51A13F51AC3E582951AF5F0E583951B4005F58385F082C319
:0D151900E51B13F51BE51A13F51ADAE122A4
:200086007800E84400600A790175AF00E4F309D8FC7850E84400600C7901900001E4F0A318
:0400A600D8FCD9FAAF
:20152600B98003EA13B34010EA2401FAE43BFBE43CFC50047C800582BC000EBB000BBA0009
:2015460008E4F5F0F583F58222A2D1E582138CF092F78B838A8222E4F583F58275F080F4C9
:0F156600A2D11322E4F583F58275F0C0747F22C1
:20157500C018858118120111D0182285827385837485F075E4F570F571F572851976901583
:201595007502166BC018858118E51824FBFF8F76E4F570F571F572E51824FBF88673088677
:0D15B5007408867590157512166BD01822FB
:2015C200AF82C066C067C0681215CF8007C064C0658F8222158115811581056EE4B56E022C
:2015E200056F22AF8274302FFF24C6500A74072FFF3007034307208F820215C2E582FFC4AB
:20160200540FF582C0071215E5D007740F5FF5820215E585821A85691B856A1C856B1D8528
:201622006C1EAA6D751F20EA2AFAE51E235401FF8A064EFAE51B251BF51BE51C33F51CE579
:201642001D33F51DE51E33F51EC3EA951A4008EAC3951AFA431B01D51FCD851B69851C6AAF
:20166200851D6B851E6C8A6D22858264858365857066857167857268E4F56EF56FAD73AECB
:2016820074AF758D828E838FF0121B8DFC74012DF573E43EF5748F75ECFF7003021B6EBF1A
:2016A20025028003021B66C208C209C20AC20BC20CC20DC20EC20F7577007578007CFFAA91
:2016C20073AB74AE758A828B838EF0121B8DFFA3AA82AB838A738B748E75BF25078F8212F8
:2016E20015C280998F7A74D0257A5026E57A24C64020BCFF12E57875F00AA4FD2F24D0F59B
:201702007870C2D20980BEEC75F00AA42F24D0FC80B3BF2E07BCFFAD7C0080A98F05BD6100
:2017220000400CED248540075307DFD2078002C207BF2002806DBF2B028063BF2D028059BD
:20174200BF42028063BF43028068BF4403021910BF4603021926BF48030216C7BF49030245
:201762001910BF4A030216C7BF4C028040BF4F03021917BF50030218A5BF5302805CBF546F
:20178200030216C7BF550302191CBF5803021921BF5A030216C702192AD2080216C7D20AEC
:2017A2000216C7D20B0216C7D20D0216C7D20E0216C7300D0CE57614FE8E768E01870780B8
:2017C20011E57624FEFE8E768E018705098706198D078F821215C2021933E57624FDFE8EC9
:2017E200768E01870309870509870619198B698D6A8E6B8B828D838EF0C004121B75AD82E7
:20180200AE83D004BCFF028D0420082AC3ED95785024E578C39DF578AE788E031EEB601492
:20182200758220C006C005C0041215C2D004D005D00680E68E788C06856982856A83856B08
:20184200F0121B8DFCFF602F8E041EC374808CF063F08095F050208F82C006C0051215C222
:20186200D005D006AA69AB6AAC6B0ABA00010B8A698B6A8C6B80C1200803021933C3ED95CE
:20188200784003021933E578C39DF578AE788E041EEC7003021931758220C0061215C2D0FC
:2018A2000680EBE57624FDFC8C768C01870209870309870419198A698B6A8C6BAC6BBC809A
:2018C2000040047F438014BC600040047F50800BBC400040047F4980027F588F82C0071267
:2018E20015C275823A1215C27582301215C27582781215C2D007BF4902800BBF500280068A
:20190200856A821215FE8569821215FE8023D20C75770A801C757708801775770A801275FF
:201922007710800DD20F80098F821215C280028E78300F5CE57624FCFE8E768E018702096C
:2019420087030987040987061919198A698B6A8C6B8E6C7569EB756A1E756B8085697B8599
:201962006A7C856B7D7401257BFAE4357CFCAE7D8A698C6A8E6B857B82857C83857DF0125B
:201982001B8DFEFF700302167F8F821215C280CCE577700302167F757983300D2DE57614A0
:2019A200FC8C768C01E7FA3395E0FBFCFE8A698B6A8C6B8E6C200C66AA697B007C007E0029
:2019C2008A698B6A8C6B8E6C8054300E21E57624FCFE8E768E0187020987030987040987AD
:2019E200061919198A698B6A8C6B8E6C8030E57624FEFE8E768E01870409870619EE33950D
:201A0200E0FBFA8C698E6A8B6B8A6C200C10AA69AB6A7C007E008A698B6A8C6B8E6C300CA3
:201A220022E56C30E71BC3E49569FAE4956AFBE4956BFCE4956CFE8A698B6A8C6B8E6C8066
:201A420002C20CD210A9797E00756D00857782C006C001121615D001D00620100BE56DC416
:201A6200FCE7FB4CF7198002A76D0EB210E569456A456B456C70D289798E05E5787003754A
:201A82007801200924200821ED04FEAC78C3EE9C5015758220C006C005C0041215C2D0044D
:201AA200D005D0061C80E68C78300C0E75822DC0051215C2D00515788023ED6020300A0E1D
:201AC20075822BC0051215C2D0051578800F300B0C758220C0051215C2D00515782008228B
:201AE200AE788E041EC3ED9C502B3009047C3080027C208C82C006C0051215C2D005D00613
:201B020080E0C3ED95785008E578C39DF578800775780080028E78A9798D068E051EED6075
:201B220026B21020100A09E7C4540FFD8D6D80078705740F5DF56D856D82C006C0011215FC
:201B4200E5D001D00680D420080302167FAE788E051EED700302167F758220C0061215C24D
:131B6200D00680EB8F821215C202167F856E82856F832290
:0B1EEB003C4E4F20464C4F41543E003F
:181B7500AA82AB83121B8D6003A380F8C3E5829AF582E5839BF58322EE
:0D005100758183121BA9E582600302004E39
:1C1B8D0020F71430F6148883A88220F507E6A88375830022E280F7E49322E02267
:041BA900758200221F
:00000001FF
