:0400000002001132B7
:03000B000208895F
:11006A00E4F50BF50CF50DF50EF50FF510F511F51285
:0300850002000E68
:03000E000200E409
:2000880075B1677E007F011EBEFF011FEE4F70F7E5B130E7FB75B2882275985075892075C5
:2000A8008DDCD28E438E10438780D29943A4012275FFDE75FFAD1200881200A143E10443A4
:2000C800E34022AF8210990280FB8F992210980280FB8599821200CB859982221200B812F2
:2000E800083912086512086B1208517582201200CB7449C0E07414C0E07480C0E0120C2DF0
:200108001581158115811203CB744BC0E07414C0E07480C0E0120C2D158115811581D28CAF
:20012800E4F50BF50C20910302020012087D12131AAC82AD83AEF0FFC004C005C006C00733
:20014800907AE175F030744312093AAC82AD83AEF0FFE58124FCF581E4C0E07460C0E074A8
:200168006AC0E07446C0E08C828D838EF0EF120B16AC82AD83AEF0FFE58124FCF5818C8250
:200188008D838EF0EF120BA385820F858310C3E50F9498E510943A5006750F9875103AAC69
:2001A8000FAD107E007F00C374609C74EA9DE49E74808FF063F08095F05006750F60751034
:2001C800EA12087DAF827E00C007C006C00FC0107482C0E07414C0E07480C0E0120C2DE539
:2001E8008124F9F581C3E50B9451E50C940140F5E4F50BF50C02012D3091FDC3E50F9498DA
:20020800E510943A401CAC0FAD107E007F00C374609C74EA9DE49E74808FF063F08095F0C7
:20022800501874B8C0E07414C0E07480C0E0120C2D1581158115810203CA850F82851083BC
:20024800120BAEAC82AD83AEF0FF74A4C0E07470C0E0743DC0E07440C0E08C828D838EF053
:20026800EF12123BAC82AD83AEF0FFE58124FCF5818C828D838EF0EF120BA38582118583C6
:2002880012C28374E8C0E07414C0E07480C0E0120C2D1581158115812091FD3091FDC28389
:2002A8007415C0E07415C0E07480C0E0120C2D1581158115811203DEAE82AF83C007C00661
:2002C800C006C007741FC0E07415C0E07480C0E0120C2DE58124FBF5817435C0E07415C0C1
:2002E800E07480C0E0120C2D1581158115811203CB744AC0E07415C0E07480C0E0120C2D2F
:20030800158115811581D006D0072091FD3091FDC284C007C0067477C0E07415C0E074807F
:20032800C0E0120C2D1581158115811203DEAC82AD83C005C004C004C0057481C0E0741587
:20034800C0E07480C0E0120C2DE58124FBF5817435C0E07415C0E07480C0E0120C2D158134
:20036800158115811203CBD004D005D006D007C3EC9EED9F50177498C0E07415C0E074800A
:20038800C0E0120C2D1581158115818033C3EE9CEF9D501774A9C0E07415C0E07480C0E03B
:2003A800120C2D158115811581801574BAC0E07415C0E07480C0E0120C2D158115811581FB
:2003C80080FE22750830750930750A3012075BD283D284D2822274D2C0E07415C0E07480D3
:2003E800C0E0120C2D1581158115811208A2AF82C0071208A2AE82C0061208A2858213D03C
:2004080006D007BF300ABE30077430B5130280DBE513FB3395E0FCEEF93395E0FAEFF83306
:2004280095E0FDC007C006C003C004C001C002C000C00574FEC0E07415C0E07480C0E01245
:200448000C2DE58124F7F5817451C0E07416C0E07480C0E0120C2D158115811581D006D08E
:20046800072091FD3091FDC007C0067489C0E07416C0E07480C0E0120C2D1581158115810C
:20048800D006D007E4F516F517C007C006120615AA82AB83D006D007EA2518F518EB35197E
:2004A800F519EFB508028003020551EEB509028003020551E513B50A028003020551E50A91
:2004C800FA3395E0FBE509F51A3395E0F51BE508F83395E0F9C002C003C01AC01BC000C082
:2004E8000174C4C0E07416C0E07480C0E0120C2DE58124F7F58174D4C0E07416C0E0748015
:20050800C0E0120C2D158115811581D28C7A007B00E4F50DF50EC282C3E50D9464E50E9472
:200528000040F5D282C3E50D94C8E50E940040F50ABA00010BC3EA9405EB6480948040D153
:200548008518828519830206148E3E85133F850840850941850A428F82C007C0061207B9B7
:20056800858214858315D006D007EFB508080516E4B516020517EEB509080516E4B5160272
:200588000517E513B50A080516E4B516020517E50AF83395E0F9E509FA3395E0FBE508FC94
:2005A8003395E0FDC007C006C016C017C014C015C000C001C002C003C004C00574DFC0E029
:2005C8007416C0E07480C0E0120C2DE58124F3F58174F6C0E07416C0E07480C0E0120C2D04
:2005E800158115811581D006D007D28CE5144515600302048CE4F50DF50EC282C3E50D9468
:2006080056E50E940440F5D28202048C22E4F50BF50CD28CC3E511950BE512950C405330BD
:200628009150753E51753F01850B82850C83120AC9E5828583F045F07033E511C3950BF588
:2006480082E512950CF583753E51753F011208C6AE82AF83C006C00774F9C0E07416C0E041
:200668007480C0E0120C2DE58124FBF58112071E80A23091FDC28CC3E50B9511E50C951242
:20068800400690000602071D850B3E850C3F900005120A3E120BAEAC82AD83AEF0FFC00439
:2006A800C005C006C0079070A475F03D744012093AAC82AD83AEF0FFE58124FCF581850F06
:2006C80082851083C007C006C005C004120BAEA882A983AAF0FBD004D005D006D007C00096
:2006E800C001C002C0038C828D838EF0EF12123BAC82AD83AEF0FFE58124FCF5818C828D30
:20070800838EF0EF120B6FE5828583F02401F582E435F0F5832230A505750830800B30A4D1
:2007280005750852800375084730A305750930800B30A205750952800375094730A105754B
:200748000A30800B30A005750A528003750A4712075B227430B50806D2B4D2B58014745279
:20076800B50806D2B4C2B580097447B50804C2B4D2B57430B50906D2B2D2B380147452B52F
:200788000906D2B2C2B380097447B50904C2B2D2B37430B50A06D2B0D2B180147452B50AC3
:2007A80006D2B0C2B180097447B50A04C2B0D2B122AF828F43853E44853F45854046854134
:2007C800478542487E007F007C007D008E4B8F4CE4F549F54AEC2446F985494D854A4E87A2
:2007E80003E54D2443F88602EBB50211054BE4B54B02054CE5492443F8767A801B054DE44D
:20080800B54D02054E854D49854E4AC3E54D9403E54E6480948040C70CBC00010DC3EC946A
:2008280003ED6480948040A8AE4BAF4C8E828F8322E5A475A4FF53BDFE53A5FC43900353DC
:20084800A6C043A03F43A73F2275D10375AA8043AB0175AC00AFAA74DF5FF5AA2243A8020C
:20086800D2AF22438E085389F0438901C28C758A00758C002243AA10E5AA30E5FB859C82AC
:2008880022C0E0C0D0050BE4B50B02050C050DE4B50D02050ED0D0D0E0321208EF753E0329
:1E08A800753F00121325AE82AF83EE7005758230800BBE0105758252800375824722CD
:201449000D0050726573732070757368627574746F6E207768656E2066696E6973686564B1
:2014690020636F6E6669677572696E672067616D652074696D650D0A0043757272656E7425
:201489006C792073657420746F202575206D696C6C697365636F6E647320616E64207261C9
:2014A9007720696E7075742069732025750D000D0A54686572652077617320612070726F2D
:2014C900626C656D207769746820746D61782E205175697474696E672067616D652E000D15
:2014E9000A0A506C6179657220313A20707265737320746865207075736820627574746FFB
:201509006E20746F20626567696E2E000D506C617965722031000D0A506C6179657220315E
:2015290020706F696E74733A202564000D0A3D3D3D3D3D3D3D3D3D3D3D3D3D3D3D3D3D3DA1
:20154900000D0A0A506C6179657220323A207072657373207468652070757368206275746F
:20156900746F6E20746F20626567696E2E000D506C617965722032000D0A0A506C617965D3
:2015890072203220706F696E74733A202564000D0A0A506C61796572203220776F6E2E005C
:2015A9000D0A0A506C61796572203120776F6E2E000D0A0A506C61796572203120616E646F
:2015C900203220746965642E002773205475726E2020202020202020202020202020202059
:2015E9002020202020202020202020202020202020200D0A0020202020202020202020202B
:201609002020202020202020202020202020202020202020202020202020202020202020C1
:2016290020202020202020202020202020202020202020202020202044656275673A20253B
:2016490063202563202563000D47656E657261746564206120636F64652E2050726573739B
:201669002070757368627574746F6E207768656E20726561647920746F20706C61792E00D7
:201689000D2020202020202020202020202020202020202020202020202020202020202054
:2016A900202020202020202020202020202020202020202020202020200D000D202563201F
:2016C9002563202563202020202000284D4154434821290D0A000D20256320256320256336
:2016E900202564202564202020202020000D0A000D2564207365636F6E6473206C65667448
:031709002020009D
:2008C6007A10E4FBFCE58225E0F582E58333F583EB33FBEC33FCEB953EF5F0EC953F4006DA
:0908E600FCABF0438201DADD22D3
:0A007B00751C01E4F51DF51EF51FCC
:2008EF00851C3E851D3F851E40851F41904E6D75F0C67441120A5BAC82AD83AEF0FF743917
:20090F002CF51C74303DF51DE43EF51EE43FF51FAC1EAD1F8C82747F5DF58322AE82AF833C
:0B092F008E1C8F1D751E00751F00221E
:20093A001209DDBC0003020BDBEF60FA30D502B2D1E583B4FF03020BF1E582B4FF03020BE5
:20095A00F1258340072482400B020BDB2483145003020BF1F582EA8DF0A4A8F0EA8EF0A492
:20097A0028F8E435F0F9EB8DF0A428E935F0F9E433CA8FF0A429F9EA35F0FAEBF88EF0A4CC
:20099A0029F9EA35F0FAE433FBEC8DF0A429F9EA35F0FAE43BFBE88FF0A42AFAEB35F0FB74
:2009BA00E433CCFD8EF0A42AFAEB35F0FBE43CFCED8FF0A42BFBEC35F0FC20E703120A0B5C
:0309DA00020BBA53
:2009DD00AA82AB83A2F73392D1F5826002D2F7ACF0E58124F9F8E6FD08E6FE0886F008E67D
:0E09FD00A2F73392D5F5836002D2F7AFF02255
:06004000E478FFF6D8FD94
:200A0B007804EC7011E58224F8500AF582E4C9CACBFCD8EF22EC7820058220E713D58201EA
:130A2B0022C3E933F9EA33FAEB33FBEC33FCD8EA158222F8
:20001E007900E94400601B7A00901717780175AF00E493F2A308B8000205AFD9F4DAF2753C
:02003E00AFFF12
:1D0A3E00E582853EF0A4C582C0F0853FF0A4D0F025F0C583853EF0A42583F58322D8
:200A5B00AAF0FBE582853EF0A4FCADF0E583853EF0A42DFDE435F0FEE582853FF0A42DFDB6
:200A7B00E5F03EFEE433FFEA853EF0A42EFEE5F03FFFE583853FF0A42EFEE5F03FFFE5824E
:200A9B008540F0A42EFEE5F03FFFEB853EF0A42FFFEA853FF0A42FFFE5838540F0A42FFFD4
:0E0ABB00E5828541F0A42F8EF08D838C82227F
:200AC900E53E453F60467A01E53E25E0F53EE53F334012F53FE582953EE583953F40030A4A
:200AE90080E6C3E53F13F53FE53E13F53EC3E582953EF5F0E583953F4005F58385F082C35B
:0D0B0900E53F13F53FE53E13F53EDAE1222E
:200046007800E84400600A790175AF00E4F309D8FC7800E84400600C7900900001E4F0A3A9
:04006600D8FCD9FAEF
:200B16001209DD7900E583B58202800D5003121209E583C3958212136EE5D0C465D020E11C
:200B360017EA2DFAEB3EFBEC3FFC5009740112136EEC4480FC020BBAC3EA9DFAEB9EFBECA4
:190B56009FFC500FC3E499F9E49AFAE49BFBE49CFCB2D1120A0B020BBA74
:200B6F001213B1700AE582458345F0700122E430D112F4700BE5F0F47006E58330E70122D8
:140B8F0090800022700AE5F07006E58320E70122907FFF2299
:0B0BA3007F8E121424F58385F082225F
:0C0BAE00E4AC83AB82FAF9748E0213648D
:200BBA00B98003EA13B34010EA2401FAE43BFBE43CFC50047C800582BC000EBB000BBA007F
:200BDA0008E4F5F0F583F58222A2D1E582138CF092F78B838A8222E4F583F58275F080F43F
:0F0BFA00A2D11322E4F583F58275F0C0747F2237
:200C0900C03D85813D1200CBD03D2285823285833385F034E4F52FF530F531852235900C97
:200C290009020CFFC03D85813DE53D24FBFF8F35E4F52FF530F531E53D24FBF8863208867F
:0D0C490033088634900C09120CFFD03D22B8
:200C5600AF82C025C026C027120C638007C023C0248F8222158115811581052DE4B52D02DD
:200C7600052E22AF8274302FFF24C6500A74072FFF3000034307208F82020C56E582FFC4DD
:200C9600540FF582C007120C79D007740F5FF582020C7985823E85283F852940852A4185BB
:200CB6002B42AA2C754320EA2AFAE542235401FF8A064EFAE53F253FF53FE54033F540E551
:200CD6004133F541E54233F542C3EA953E4008EAC3953EFA433F01D543CD853F288540293F
:200CF60085412A85422B8A2C22858223858324852F25853026853127E4F52DF52EAD32AE87
:200D160033AF348D828E838FF01212FEFC74012DF532E43EF5338F34ECFF7003021202BFE1
:200D3600250280030211FAC201C202C203C204C205C206C207C2087536007537007CFFAA36
:200D560032AB33AE348A828B838EF01212FEFFA3AA82AB838A328B338E34BF25078F82128B
:200D76000C5680998F3974D025395026E53924C64020BCFF12E53775F00AA4FD2F24D0F589
:200D96003770C2D20280BEEC75F00AA42F24D0FC80B3BF2E07BCFFAD7C0080A98F05BD61BE
:200DB60000400CED248540075307DFD2008002C200BF2002806DBF2B028063BF2D02805941
:200DD600BF42028063BF43028068BF4403020FA4BF4603020FBABF4803020D5BBF4903021C
:200DF6000FA4BF4A03020D5BBF4C028040BF4F03020FABBF5003020F39BF5302805CBF54BB
:200E160003020D5BBF5503020FB0BF5803020FB5BF5A03020D5B020FBED201020D5BD20330
:200E3600020D5BD204020D5BD206020D5BD207020D5B30060CE53514FE8E358E018707809F
:200E560011E53524FEFE8E358E018705098706198D078F82120C56020FC7E53524FDFE8EEC
:200E7600358E01870309870509870619198B288D298E2A8B828D838EF0C004121223AD82BB
:200E9600AE83D004BCFF028D0420012AC3ED95375024E537C39DF537AE378E031EEB601413
:200EB600758220C006C005C004120C56D004D005D00680E68E378C06852882852983852AF7
:200ED600F01212FEFCFF602F8E041EC374808CF063F08095F050208F82C006C005120C56A5
:200EF600D005D006AA28AB29AC2A0ABA00010B8A288B298C2A80C1200103020FC7C3ED9547
:200F1600374003020FC7E537C39DF537AE378E041EEC7003020FC5758220C006120C56D0D6
:200F36000680EBE53524FDFC8C358C01870209870309870419198A288B298C2AAC2ABC8095
:200F56000040047F438014BC600040047F50800BBC400040047F4980027F588F82C00712DC
:200F76000C5675823A120C56758230120C56758278120C56D007BF4902800BBF50028006D3
:200F9600852982120C92852882120C928023D20575360A801C753608801775360A801275AB
:200FB6003610800DD20880098F82120C5680028E3730085CE53524FCFE8E358E0187020969
:200FD60087030987040987061919198A288B298C2A8E2B75280C752917752A8085283A853E
:200FF600293B852A3C7401253AFAE4353BFCAE3C8A288C298E2A853A82853B83853CF0121E
:2010160012FEFEFF7003020D138F82120C5680CCE5367003020D1375385430062DE5351405
:20103600FC8C358C01E7FA3395E0FBFCFE8A288B298C2A8E2B200566AA287B007C007E002B
:201056008A288B298C2A8E2B8054300721E53524FCFE8E358E0187020987030987040987AF
:20107600061919198A288B298C2A8E2B8030E53524FEFE8E358E01870409870619EE339508
:20109600E0FBFA8C288E298B2A8A2B200510AA28AB297C007E008A288B298C2A8E2B3005B1
:2010B60022E52B30E71BC3E49528FAE49529FBE4952AFCE4952BFE8A288B298C2A8E2B8025
:2010D60002C205D209A9387E00752C00853682C006C001120CA9D001D00620090BE52CC41B
:2010F600FCE7FB4CF7198002A72C0EB209E5284529452A452B70D289388E05E5377003758E
:201116003701200224200121ED04FEAC37C3EE9C5015758220C006C005C004120C56D004C7
:20113600D005D0061C80E68C3730050E75822DC005120C56D00515378023ED602030030E97
:2011560075822BC005120C56D0051537800F30040C758220C005120C56D00515372001227A
:20117600AE378E041EC3ED9C502B3002047C3080027C208C82C006C005120C56D005D00645
:2011960080E0C3ED95375008E537C39DF537800775370080028E37A9388D068E051EED6071
:2011B60026B20920090A09E7C4540FFD8D2C80078705740F5DF52C852C82C006C001120C4C
:2011D60079D001D00680D4200103020D13AE378E051EED7003020D13758220C006120C56D6
:1311F600D00680EB8F82120C56020D13852D82852E832272
:0B170C003C4E4F20464C4F41543E0025
:1A120900E582C583F582A2D133A2D592D11392D5ECCFFCEBCEFBEACDFA226D
:18122300AA82AB831212FE6003A380F8C3E5829AF582E5839BF58322E1
:20123B001209DD30D502B2D1BF0009BC0003020BFE020BF1BC0003020BDBE583B4FF0BE5CF
:20125B0082B4FF03020BFE020BDBE582B4FF03020BF1C395835007247F400B020BDB248081
:20127B00145003020BF1F582C3ED9AEE9BEF9C40111582C3EA33F9EB33FAEC33FBE433FC13
:20129B008005E4CCCBCAF9C08275F019C3E99DEA9EEB9FEC9400D5F002802D400EE99DF994
:2012BB00EA9EFAEB9FFBEC9400FCC3B3E833F8E58233F582E58333F583C3E933F9EA33FAF4
:2012DB00EB33FBEC33FC80C4B3E4F938FAE43582FBE43583FCD082500405827C80120A0B3B
:0312FB00020BD211
:0D00110075815412140CE582600302000E8C
:1C12FE0020F71430F6148883A88220F507E6A88375830022E280F7E49322E022FF
:0B131A00E4AC82FBFAF9748602136455
:20132500C2D5E58330E70DD2D5E4C39582F582E49583F583E53F30E70BE4C3953EF53EE45E
:16134500953FF53F120AC930D50BE4C39582F582E49583F58322CA
:13135B00FCABF0AA83A982749EC2D1F582120A0B020BBA86
:20136E006040F82582500274FFF582E824F8501ECCCBCAF9E4CC24F85014CBCAF9E4CB2487
:20138E00F8500BCAF9E4CA24F8500379002224086010F8C3EC13FCEB13FBEA13FAE913F93A
:0313AE00D8F12251
:2013B100121410C3749E95824039790012136E30D126E9F42401F582EAF43400F583EBF46C
:2013D1003400F5F0ECF43400700AE582458345F0700122E430E70F22EC20E71489828A8313
:1B13F1008BF02230D10AE4F582F583F5F074802274FFF582F583F5F0747F220F
:04140C0075820022C3
:12141000AA82AB83A2F73392D1F5826002D2F7ACF022E1
:201422007F9E12141030D103020BDBC3EF9582500974FFF5F0F583F58222790012136E894B
:07144200828A838BF0EC228B
:00000001FF
