:040000000200513277
:01000B0032C2
:0100130032BA
:01001B0032B2
:0100230032AA
:01002B0032A2
:01003300329A
:01003B003292
:01004300328A
:03004B000206208A
:0800AA00E4F518F51902004EFF
:03004E0002058820
:2000B20075B1677E007F011EBEFF011FEE4F70F7E5B130E7FB75B28822759850758920759B
:2000D2008DDCD28E438E10438780D29943A4012275FFDE75FFAD1200B21200CB43E1044326
:2000F200E34022AF8210990280FB8F992210980280FB8599821200F585998222C01A85819A
:200112001AE51A24FBF886820886830886F0120D62E5828583F045F070028062E51A24FB7F
:20013200FF8F25E51A24FBF8862208862308862490000175F0001206D790000175F00012EC
:200152000D62AE827F00C3EF9E501FEF2401F582E43400F583E0FDBD0A0DEF2401F582E475
:200172003400F583740DF00F80DC750E01750F00751000750D008E117582C6120424D01A56
:200192002275080074C0250840177513087514007515407512007516017582C612049A8013
:2001B200E375090C750E09750F00751040750D007511017582C61204242275130B751400AD
:2001D2007515407512017516027582C612049A74FFB50B05758200805F7F008F068EF0051C
:2001F200F07C017D008006EC2CFCED33FDD5F0F7AA0B7B00EA5204EB5205EC4D6007743199
:200212002FF58280330E8E07BE080040D0E50C30E0057582398021E50C30E10575822A807B
:2002320017E50C30E205758230800DE50C30E30575822380037582FF22AF82E4FDFEEF70AC
:200252001DC006C005749AC0E0740DC0E07480C0E012010E158115811581D005D006C0062D
:20027200C0057408C0E0E4C0E07408C0E0E4C0E07408C0E0E4C0E07408C0E0E4C0E07408AB
:20029200C0E0E4C0E074B0C0E0740DC0E07480C0E012010EE58124F3F58190A12075F007DE
:2002B200E41203BFD005D0067F00C007C006C0051201CCAC82D005D006D0078C03BCFF021D
:2002D2008003BB2A17902710E4F5F0C007C006C0051203BFD005D006D00780CEBB232AC03F
:2002F20006C0051201CCAC82D005D006BC2313902710E4F5F0C006C0051203BFD005D006DD
:2003120080DD8D828E830203BEEBFA3395E0FCC007C006C005C004C003C002C002C004746D
:20033200C0C0E0740DC0E07480C0E012010EE58124FBF581D002D003D004D005D0068D4386
:200352008E4490000AC004C003C00212064AA882A983D002D003D004D007EA28F8EC39F9A6
:20037200E824D0FDE934FFFEC007C006C005C0031201CCAC82D003D005D006D007ECB5035D
:200392001B902710E4F5F0C007C006C005C0031203BFD003D005D006D00780CC0FC3EF64F1
:2003B20080948550030202BC8D828E8322AC82AD83AEF0FF780079007A007B00C3E89CE92C
:2003D2009DEA9EEB9F500F08B8000909B900050ABA00E90B80E62220C7FDD2C530C3FDC200
:2003F200C5C2C3228582C210C30280FB228582C2D2C410C30280FB2230C3FD85C282C2C335
:200412002230C3FDAFC2C2C3D2C410C30280FB8F8222AF82C0071203E9D00774FE5FF58294
:200432001203F6850D821203F67F00AD117E001DBDFF011E8F037C00C3EB9DEC64808EF026
:2004520063F08095F0501FEF250EFCE4350FFDAE108C828D838EF0120D7AF582C00712033A
:20047200F6D0070F80C5AE117F001EBEFF011FEE250EFEEF350FFFAD108E828F838DF01251
:200492000D7AF5821203FF22AF82C0071203E9D0078F0674FE5EF582C0071203F685128282
:2004B2001203FF1203E9D00774014FF5821203F67F00AD167E001DBDFF011E8F037C00C372
:2004D200EB9DEC64808EF063F08095F0502ED2C2EF2513FCE43514FDAE15C007C006C00568
:2004F200C00412040AAB82D004D005D006D0078C828D838EF0EB12062F0F80B6C2C2AE1628
:200512007F001EBEFF011FEE2513FEEF3514FFAD15C007C006C005120413AC82D005D006DE
:20053200D0078E828F838DF0EC12062F22751723750E17750F00751040750D2075110175AE
:200552008230120424751700750E17750F00751040750D2175110175823012042475170017
:20057200750E17750F00751040750D22751101758230120424221200E27582201200F512B4
:20059200060912060D12061174C3C0E0740DC0E07480C0E01207861581158115817518C8AA
:2005B20075190A75EC3875FCF51205C180FB221200FFAF82BF6618C3E51894ACE519940DFF
:2005D2005027740A2518F518E43519F519801ABF7317C374EE951874079519500CE518242F
:2005F200F6F518E51934FFF51974FFC39518F5EC74FF9519F5FC2243A5042275E1272243BF
:1D061200D84043D90143DCC243E608D2AF2210DF02800675E90075F97053D8C03211
:200D9A000A54797065206469676974733B20656E6420772F23002020202020256325632599
:200DBA00632563256300256300456D62656464656420436F6E74726F6C20447269766520D9
:0E0DDA004D6F746F7220436F6E74726F6C00F9
:06008000E478FFF6D8FD54
:20005E007900E94400601B7A00900DF3785175AF00E493F2A308B8000205AFD9F4DAF275DA
:02007E00AFFFD2
:1B062F0020F71130F6138883A88220F509F6A8837583002280FEF280F5F022CA
:1D064A00E5828543F0A4C582C0F08544F0A4D0F025F0C5838543F0A42583F58322C1
:20066700C01A85811AC082058105810581E51A24FBF8A91A0909E6F70809E6F70809E6F701
:20068700A81A080886820886830886F0120D7AFAA3120D7AFBA3120D7AFF74012AFCE43B2B
:2006A700FD8F06A81A080886820886830886F0EC12062FA3ED12062FA3EE12062F8A828BBF
:2006C700838FF0A81A08E612062F851A81D01A2285822685832785F0287535267536007505
:2006E700374085223885233985243A85253B900667120858AE82AF83AB26AC27AD288B829D
:200707008C838DF0E412062F8E828F8322C01A85811AE51A24F8FF8F3BE51A24FBFF8F3518
:20072700753600753740E51A24F8F8863808863908863A900667120858AE82AF83E51A24C7
:1B074700FBF886030886040886058B828C838DF0E412062F8E828F83D01A2204
:200086007800E84400600A790175AF00E4F309D8FC7850E84400600C7901900001E4F0A318
:0400A600D8FCD9FAAF
:20076200C01A85811A1200F5D01A2285823885833985F03AE4F535F536F537851B3B900764
:2007820062020858C01A85811AE51A24FBFF8F3BE4F535F536F537E51A24FBF886380886EB
:0D07A2003908863A900762120858D01A22D2
:2007AF00AF82C02BC02CC02D1207BC8007C029C02A8F82221581158115810533E4B533020B
:2007CF00053422AF8274302FFF24C6500A74072FFF3000034307208F820207AFE582FFC42F
:2007EF00540FF582C0071207D2D007740F5FF5820207D2858243852E44852F458530468599
:20080F003147AA32754820EA2AFAE547235401FF8A064EFAE5442544F544E54533F545E5C8
:20082F004633F546E54733F547C3EA95434008EAC39543FA434401D548CD85442E85452FAC
:20084F008546308547318A322285822985832A85352B85362C85372DE4F533F534AD38AED4
:20086F0039AF3A8D828E838FF0120D7AFC74012DF538E43EF5398F3AECFF7003020D5BBFA4
:20088F0025028003020D53C201C202C203C204C205C206C207C208753C00753D007CFFAA81
:2008AF0038AB39AE3A8A828B838EF0120D7AFFA3AA82AB838A388B398E3ABF25078F82129C
:2008CF0007AF80998F3F74D0253F5026E53F24C64020BCFF12E53D75F00AA4FD2F24D0F5C9
:2008EF003D70C2D20280BEEC75F00AA42F24D0FC80B3BF2E07BCFFAD7C0080A98F05BD6164
:20090F0000400CED248540075307DFD2008002C200BF2002806DBF2B028063BF2D028059EC
:20092F00BF42028063BF43028068BF4403020AFDBF4603020B13BF48030208B4BF490302CA
:20094F000AFDBF4A030208B4BF4C028040BF4F03020B04BF5003020A92BF5302805CBF5415
:20096F00030208B4BF5503020B09BF5803020B0EBF5A030208B4020B17D2010208B4D203E1
:20098F000208B4D2040208B4D2060208B4D2070208B430060CE53B14FE8E3B8E01870780EF
:2009AF0011E53B24FEFE8E3B8E018705098706198D078F821207AF020B20E53B24FDFE8EDD
:2009CF003B8E01870309870509870619198B2E8D2F8E308B828D838EF0C004120D62AD8215
:2009EF00AE83D004BCFF028D0420012AC3ED953D5024E53DC39DF53DAE3D8E031EEB6014A7
:200A0F00758220C006C005C0041207AFD004D005D00680E68E3D8C06852E82852F83853036
:200A2F00F0120D7AFCFF602F8E041EC374808CF063F08095F050208F82C006C0051207AF85
:200A4F00D005D006AA2EAB2FAC300ABA00010B8A2E8B2F8C3080C1200103020B20C3ED9579
:200A6F003D4003020B20E53DC39DF53DAE3D8E041EEC7003020B1E758220C0061207AFD06C
:200A8F000680EBE53B24FDFC8C3B8C01870209870309870419198A2E8B2F8C30AC30BC801D
:200AAF000040047F438014BC600040047F50800BBC400040047F4980027F588F82C0071288
:200ACF0007AF75823A1207AF7582301207AF7582781207AFD007BF4902800BBF500280062F
:200AEF00852F821207EB852E821207EB8023D205753C0A801C753C088017753C0A80127591
:200B0F003C10800DD20880098F821207AF80028E3D30085CE53B24FCFE8E3B8E01870209A8
:200B2F0087030987040987061919198A2E8B2F8C308E31752EE8752F0D753080852E4085E1
:200B4F002F4185304274012540FAE43541FCAE428A2E8C2F8E308540828541838542F0127B
:200B6F000D7AFEFF700302086C8F821207AF80CCE53C700302086C753E4E30062DE53B1432
:200B8F00FC8C3B8C01E7FA3395E0FBFCFE8A2E8B2F8C308E31200566AA2E7B007C007E00B3
:200BAF008A2E8B2F8C308E318054300721E53B24FCFE8E3B8E018702098703098704098737
:200BCF00061919198A2E8B2F8C308E318030E53B24FEFE8E3B8E01870409870619EE339590
:200BEF00E0FBFA8C2E8E2F8B308A31200510AA2EAB2F7C007E008A2E8B2F8C308E31300521
:200C0F0022E53130E71BC3E4952EFAE4952FFBE49530FCE49531FE8A2E8B2F8C308E31809A
:200C2F0002C205D209A93E7E00753200853C82C006C001120802D001D00620090BE532C459
:200C4F00FCE7FB4CF7198002A7320EB209E52E452F4530453170D2893E8E05E53D7003750F
:200C6F003D01200224200121ED04FEAC3DC3EE9C5015758220C006C005C0041207AFD00413
:200C8F00D005D0061C80E68C3D30050E75822DC0051207AFD005153D8023ED602030030EE3
:200CAF0075822BC0051207AFD005153D800F30040C758220C0051207AFD005153D20012272
:200CCF00AE3D8E041EC3ED9C502B3002047C3080027C208C82C006C0051207AFD005D00697
:200CEF0080E0C3ED953D5008E53DC39DF53D8007753D0080028E3DA93E8D068E051EED60F9
:200D0F0026B20920090A09E7C4540FFD8D3280078705740F5DF532853282C006C0011207EA
:200D2F00D2D001D00680D420010302086CAE3D8E051EED700302086C758220C0061207AF26
:130D4F00D00680EB8F821207AF02086C8533828534832269
:0B0DE8003C4E4F20464C4F41543E0053
:180D6200AA82AB83120D7A6003A380F8C3E5829AF582E5839BF5832230
:0D00510075814E120D96E582600302004E8F
:1C0D7A0020F71430F6148883A88220F507E6A88375830022E280F7E49322E02288
:040D96007582002240
:00000001FF
