:040000000200513277
:01000B0032C2
:0100130032BA
:01001B0032B2
:0100230032AA
:01002B0032A2
:01003300329A
:01003B003292
:01004300328A
:03004B0002072C7D
:0C00AA00E4F518F519F51AF51B02004EDC
:03004E0002058C1C
:2000B60075B1677E007F011EBEFF011FEE4F70F7E5B130E7FB75B288227598507589207597
:2000D6008DDCD28E438E10438780D29943A4012275FFDE75FFAD1200B61200CF43E104431A
:2000F600E34022AF8210990280FB8F992210980280FB8599821200F985998222C01F85818D
:200116001FE51F24FBF886820886830886F0120E84E5828583F045F070028062E51F24FB49
:20013600FF8F25E51F24FBF8862208862308862490000175F0001207F990000175F00012C0
:200156000E84AE827F00C3EF9E501FEF2401F582E43400F583E0FDBD0A0DEF2401F582E44E
:200176003400F583740DF00F80DC750E01750F00751000750D008E117582C6120428D01F49
:200196002275080074C0250840177513087514007515407512007516017582C612049E800B
:2001B600E375090C750E09750F00751040750D007511017582C61204282275130B751400A5
:2001D6007515407512017516027582C612049E74FFB50B05758200805F7F008F068EF00514
:2001F600F07C017D008006EC2CFCED33FDD5F0F7AA0B7B00EA5204EB5205EC4D6007743195
:200216002FF58280330E8E07BE080040D0E50C30E0057582398021E50C30E10575822A8077
:2002360017E50C30E205758230800DE50C30E30575822380037582FF22AF82E4FDFEEF70A8
:200256001DC006C00574BCC0E0740EC0E07480C0E0120112158115811581D005D006C00602
:20027600C0057408C0E0E4C0E07408C0E0E4C0E07408C0E0E4C0E07408C0E0E4C0E07408A7
:20029600C0E0E4C0E074D2C0E0740EC0E07480C0E0120112E58124F3F58190A12075F007B3
:2002B600E41203C3D005D0067F00C007C006C0051201D0AC82D005D006D0078C03BCFF0211
:2002D6008003BB2A17902710E4F5F0C007C006C0051203C3D005D006D00780CEBB232AC037
:2002F60006C0051201D0AC82D005D006BC2313902710E4F5F0C006C0051203C3D005D006D1
:2003160080DD8D828E830203C2EBFA3395E0FCC007C006C005C004C003C002C002C0047465
:20033600E2C0E0740EC0E07480C0E0120112E58124FBF581D002D003D004D005D0068D445A
:200356008E4590000AC004C003C00212076CA882A983D002D003D004D007EA28F8EC39F97E
:20037600E824D0FDE934FFFEC007C006C005C0031201D0AC82D003D005D006D007ECB50355
:200396001B902710E4F5F0C007C006C005C0031203C3D003D005D006D00780CC0FC3EF64E9
:2003B60080948550030202C08D828E8322AC82AD83AEF0FF780079007A007B00C3E89CE924
:2003D6009DEA9EEB9F500F08B8000909B900050ABA00E90B80E62220C7FDD2C530C3FDC2FC
:2003F600C5C2C3228582C210C30280FB228582C2D2C410C30280FB2230C3FD85C282C2C331
:200416002230C3FDAFC2C2C3D2C410C30280FB8F8222AF82C0071203EDD00774FE5FF5828C
:200436001203FA850D821203FA7F00AD117E001DBDFF011E8F037C00C3EB9DEC64808EF01A
:2004560063F08095F0501FEF250EFCE4350FFDAE108C828D838EF0120E9CF582C007120313
:20047600FAD0070F80C5AE117F001EBEFF011FEE250EFEEF350FFFAD108E828F838DF01249
:200496000E9CF58212040322AF82C0071203EDD0078F0674FE5EF582C0071203FA8512824E
:2004B6001204031203EDD00774014FF5821203FA7F00AD167E001DBDFF011E8F037C00C361
:2004D600EB9DEC64808EF063F08095F0502ED2C2EF2513FCE43514FDAE15C007C006C00564
:2004F600C00412040EAB82D004D005D006D0078C828D838EF0EB1207510F80B6C2C2AE16FD
:200516007F001EBEFF011FEE2513FEEF3514FFAD15C007C006C005120417AC82D005D006D6
:20053600D0078E828F838DF0EC12075122751723750E17750F00751040750D207511017587
:200556008230120428751700750E17750F00751040750D217511017582301204287517000B
:20057600750E17750F00751040750D22751101758230120428227FE0C0071200E67582209B
:200596001200F912071512071912071D74E5C0E0740EC0E07480C0E01208A81581158115F2
:2005B60081D0077518C875190A75EB3875FBF5C007740CC0E0740FC0E07480C0E01208A883
:2005D600158115811581D007751C51750E1C750F00751040750D007511018F82C0071204AB
:2005F60028741CC0E0740FC0E07480C0E01208A8158115811581D007E4F51AF51BC374053C
:20061600951AE4951B50F6C007C01AC01B742CC0E0740FC0E07480C0E01208A8E58124FB81
:20063600F58112065EAD82AE83C005C0067437C0E0740FC0E07480C0E01208A8E58124FB84
:20065600F581D0070205C5227440C0E0740FC0E07480C0E01208A815811581158175131D15
:200676007514007515407512027516027582E012049E7444C0E0740FC0E07480C0E0120847
:20069600A8158115811581AF1D7E00AC1E7D00EC4206ED4207C007C0067447C0E0740FC0B4
:2006B600E07480C0E01208A8158115811581D006D0078E828F8322120103AF82BF6618C3F4
:2006D600E51894ACE519940D5027740A2518F518E43519F519801ABF7317C374EE95187480
:2006F600079519500CE51824F6F518E51934FFF51974FFC39518F5EC74FF9519F5FC224335
:20071600A5042275E1272243D84043D90143DAC243E608D2AF22C0E0C0D030DF10051AE4DC
:1B073600B51A02051BC2DF75E90075F97053D8C0D0D0D0E03275CF93D2C622DC
:200EBC000A54797065206469676974733B20656E6420772F23002020202020256325632576
:200EDC006325632563002563000D456D62656464656420436F6E74726F6C204472697665C9
:200EFC00204D6F746F7220436F6E74726F6C0A000D5374617274696E672070696E670A0069
:200F1C000D436F756E74696E6720746F20350A00436F756E74733A2025640052616E6765B3
:0E0F3C00202564000A310A00320A00330A0040
:06008000E478FFF6D8FD54
:20005E007900E94400601B7A00900F55785175AF00E493F2A308B8000205AFD9F4DAF27576
:02007E00AFFFD2
:1B07510020F71130F6138883A88220F509F6A8837583002280FEF280F5F022A7
:1D076C00E5828544F0A4C582C0F08545F0A4D0F025F0C5838544F0A42583F583229B
:20078900C01F85811FC082058105810581E51F24FBF8A91F0909E6F70809E6F70809E6F7CA
:2007A900A81F080886820886830886F0120E9CFAA3120E9CFBA3120E9CFF74012AFCE43B9A
:2007C900FD8F06A81F080886820886830886F0EC120751A3ED120751A3EE1207518A828B2E
:2007E900838FF0A81F08E6120751851F81D01F2285822685832785F02875362675370075AE
:20080900384085223985233A85243B85253C90078912097AAE82AF83AB26AC27AD288B822E
:200829008C838DF0E41207518E828F8322C01F85811FE51F24F8FF8F3CE51F24FBFF8F36BC
:20084900753700753840E51F24F8F8863908863A08863B90078912097AAE82AF83E51F244F
:1B086900FBF886030886040886058B828C838DF0E41207518E828F83D01F22B9
:200086007800E84400600A790175AF00E4F309D8FC7850E84400600C7901900001E4F0A318
:0400A600D8FCD9FAAF
:20088400C01F85811F1200F9D01F2285823985833A85F03BE4F536F537F53885293C900818
:2008A4008402097AC01F85811FE51F24FBFF8F3CE4F536F537F538E51F24FBF8863908866A
:0D08C4003A08863B90088412097AD01F2262
:2008D100AF82C02CC02DC02E1208DE8007C02AC02B8F82221581158115810534E4B53402BE
:2008F100053522AF8274302FFF24C6500A74072FFF3000034307208F820208D1E582FFC4E8
:20091100540FF582C0071208F4D007740F5FF5820208F4858244852F458530468531478528
:200931003248AA33754920EA2AFAE548235401FF8A064EFAE5452545F545E54633F546E59B
:200951004733F547E54833F548C3EA95444008EAC39544FA434501D549CD85452F8546307D
:200971008547318548328A332285822A85832B85362C85372D85382EE4F534F535AD39AEA1
:200991003AAF3B8D828E838FF0120E9CFC74012DF539E43EF53A8F3BECFF7003020E7DBF36
:2009B10025028003020E75C201C202C203C204C205C206C207C208753D00753E007CFFAA39
:2009D10039AB3AAE3B8A828B838EF0120E9CFFA3AA82AB838A398B3A8E3BBF25078F821250
:2009F10008D180998F4074D025405026E54024C64020BCFF12E53E75F00AA4FD2F24D0F57F
:200A11003E70C2D20280BEEC75F00AA42F24D0FC80B3BF2E07BCFFAD7C0080A98F05BD613F
:200A310000400CED248540075307DFD2008002C200BF2002806DBF2B028063BF2D028059C9
:200A5100BF42028063BF43028068BF4403020C1FBF4603020C35BF48030209D6BF4903023D
:200A71000C1FBF4A030209D6BF4C028040BF4F03020C26BF5003020BB4BF5302805CBF5465
:200A9100030209D6BF5503020C2BBF5803020C30BF5A030209D6020C39D2010209D6D203EC
:200AB1000209D6D2040209D6D2060209D6D2070209D630060CE53C14FE8E3C8E018707803E
:200AD10011E53C24FEFE8E3C8E018705098706198D078F821208D1020C42E53C24FDFE8E71
:200AF1003C8E01870309870509870619198B2F8D308E318B828D838EF0C004120E84AD82CB
:200B1100AE83D004BCFF028D0420012AC3ED953E5024E53EC39DF53EAE3E8E031EEB60147F
:200B3100758220C006C005C0041208D1D004D005D00680E68E3E8C06852F828530838531EC
:200B5100F0120E9CFCFF602F8E041EC374808CF063F08095F050208F82C006C0051208D11C
:200B7100D005D006AA2FAB30AC310ABA00010B8A2F8B308C3180C1200103020C42C3ED952D
:200B91003E4003020C42E53EC39DF53EAE3E8E041EEC7003020C40758220C0061208D1D0DC
:200BB1000680EBE53C24FDFC8C3C8C01870209870309870419198A2F8B308C31AC31BC80F4
:200BD1000040047F438014BC600040047F50800BBC400040047F4980027F588F82C0071265
:200BF10008D175823A1208D17582301208D17582781208D1D007BF4902800BBF5002800680
:200C110085308212090D852F8212090D8023D205753D0A801C753D088017753D0A80127520
:200C31003D10800DD20880098F821208D180028E3E30085CE53C24FCFE8E3C8E018702095E
:200C510087030987040987061919198A2F8B308C318E32752F4A75300F753180852F418551
:200C7100304285314374012541FAE43542FCAE438A2F8C308E318541828542838543F0124B
:200C91000E9CFEFF700302098E8F821208D180CCE53D700302098E753F4F30062DE53C147F
:200CB100FC8C3C8C01E7FA3395E0FBFCFE8A2F8B308C318E32200566AA2F7B007C007E008A
:200CD1008A2F8B308C318E328054300721E53C24FCFE8E3C8E01870209870309870409870E
:200CF100061919198A2F8B308C318E328030E53C24FEFE8E3C8E01870409870619EE339567
:200D1100E0FBFA8C2F8E308B318A32200510AA2FAB307C007E008A2F8B308C318E323005F3
:200D310022E53230E71BC3E4952FFAE49530FBE49531FCE49532FE8A2F8B308C318E32806E
:200D510002C205D209A93F7E00753300853D82C006C001120924D001D00620090BE533C40F
:200D7100FCE7FB4CF7198002A7330EB209E52F45304531453270D2893F8E05E53E700375E5
:200D91003E01200224200121ED04FEAC3EC3EE9C5015758220C006C005C0041208D1D004CB
:200DB100D005D0061C80E68C3E30050E75822DC0051208D1D005153E8023ED602030030E9B
:200DD10075822BC0051208D1D005153E800F30040C758220C0051208D1D005153E20012207
:200DF100AE3E8E041EC3ED9C502B3002047C3080027C208C82C006C0051208D1D005D00650
:200E110080E0C3ED953E5008E53EC39DF53E8007753E0080028E3EA93F8D068E051EED60CF
:200E310026B20920090A09E7C4540FFD8D3380078705740F5DF533853382C006C0011208C3
:200E5100F4D001D00680D420010302098EAE3E8E051EED700302098E758220C0061208D177
:130E7100D00680EB8F821208D102098E85348285358322FE
:0B0F4A003C4E4F20464C4F41543E00EF
:180E8400AA82AB83120E9C6003A380F8C3E5829AF582E5839BF58322EA
:0D00510075814F120EB8E582600302004E6B
:1C0E9C0020F71430F6148883A88220F507E6A88375830022E280F7E49322E02265
:040EB800758200221D
:00000001FF
