:040000000200513277
:01000B0032C2
:0100130032BA
:01001B0032B2
:0100230032AA
:01002B0032A2
:01003300329A
:01003B003292
:01004300328A
:03004B0002069812
:0F00AA00E4F532F533F534F5357539E002004EE3
:03004E0002058F19
:2000B90075B1677E007F011EBEFF011FEE4F70F7E5B130E7FB75B288227598507589207594
:2000D9008DDCD28E438E10438780D29943A4012275FFDE75FFAD1200B91200D243E1044311
:2000F900E34022AF8210990280FB8F992210980280FB8599821200FC85998222C00F858197
:200119000FE50F24FBF886820886830886F0120DF0E5828583F045F070028062E50F24FB0B
:20013900FF8F0BE50F24FBF8860808860908860A90000175F00012076590000175F00012C9
:200159000DF0AE827F00C3EF9E501FEF2401F582E43400F583E0FDBD0A0DEF2401F582E4E0
:200179003400F583740DF00F80DC752801752900752A007527008E2B7582C612042BD00FD1
:200199002275220074C025224017752D22752E00752F40752C007530017582C61204A18035
:2001B900E375230C752823752900752A40752700752B017582C612042B22752D25752E009B
:2001D900752F40752C017530027582C61204A174FFB52505758200805F7F008F068EF005A6
:2001F900F07C017D008006EC2CFCED33FDD5F0F7AA257B00EA5204EB5205EC4D6007743178
:200219002FF58280330E8E07BE080040D0E52630E0057582398021E52630E10575822A8040
:2002390017E52630E205758230800DE52630E30575822380037582FF22AF82E4FDFEEF7071
:200259001DC006C0057428C0E0740EC0E07480C0E0120115158115811581D005D006C00690
:20027900C0057408C0E0E4C0E07408C0E0E4C0E07408C0E0E4C0E07408C0E0E4C0E07408A4
:20029900C0E0E4C0E0743EC0E0740EC0E07480C0E0120115E58124F3F58190A12075F00741
:2002B900E41203C6D005D0067F00C007C006C0051201D3AC82D005D006D0078C03BCFF0208
:2002D9008003BB2A17902710E4F5F0C007C006C0051203C6D005D006D00780CEBB232AC031
:2002F90006C0051201D3AC82D005D006BC2313902710E4F5F0C006C0051203C6D005D006C8
:2003190080DD8D828E830203C5EBFA3395E0FCC007C006C005C004C003C002C002C004745F
:200339004EC0E0740EC0E07480C0E0120115E58124FBF581D002D003D004D005D0068D111B
:200359008E1290000AC004C003C0021206D8A882A983D002D003D004D007EA28F8EC39F943
:20037900E824D0FDE934FFFEC007C006C005C0031201D3AC82D003D005D006D007ECB5034F
:200399001B902710E4F5F0C007C006C005C0031203C6D003D005D006D00780CC0FC3EF64E3
:2003B90080948550030202C38D828E8322AC82AD83AEF0FF780079007A007B00C3E89CE91E
:2003D9009DEA9EEB9F500F08B8000909B900050ABA00E90B80E62220C7FDD2C530C3FDC2F9
:2003F900C5C2C3228582C210C30280FB228582C2D2C410C30280FB2230C3FD85C282C2C32E
:200419002230C3FDAFC2C2C3D2C410C30280FB8F8222AF82C0071203F0D00774FE5FF58286
:200439001203FD8527821203FD7F00AD2B7E001DBDFF011E8F037C00C3EB9DEC64808EF0DD
:2004590063F08095F0501FEF2528FCE43529FDAE2A8C828D838EF0120E08F582C007120356
:20047900FDD0070F80C5AE2B7F001EBEFF011FEE2528FEEF3529FFAD2A8E828F838DF012DB
:200499000E08F58212040622AF82C0071203F0D0078F0674FE5EF582C0071203FD852C82BC
:2004B9001204061203F0D00774014FF5821203FD7F00AD307E001DBDFF011E8F037C00C33B
:2004D900EB9DEC64808EF063F08095F0502ED2C2EF252DFCE4352EFDAE2FC007C006C00513
:2004F900C004120411AB82D004D005D006D0078C828D838EF0EB1206BD0F80B6C2C2AE3072
:200519007F001EBEFF011FEE252DFEEF352EFFAD2FC007C006C00512041AAC82D005D00682
:20053900D0078E828F838DF0EC1206BD22753123752831752900752A40752720752B017563
:20055900823012042B753100752831752900752A40752721752B0175823012042B75310032
:20057900752831752900752A40752722752B0175823012042B221200E97582201200FC12FC
:2005990006811206851206891206B77451C0E0740EC0E07480C0E0120814158115811581A3
:2005B9007532C875330A75EB3875FBF5753851752838752900752A40752700752B018539B9
:2005D9008212042BE4F534F535C374059534E49535400B12061385823685833780EBC03602
:2005F900C0377478C0E0740EC0E07480C0E0120814E58124FBF58180B322752D3A752E00AC
:20061900752F40752C027530027582E01204A1AF3A7E00AC3B7D00EC4EF582ED4FF58322B3
:20063900120106AF82BF6618C3E53294ACE533940D5027740A2532F532E43533F533801AC6
:20065900BF7317C374EE953274079533500CE53224F6F532E53334FFF53374FFC39532F5F0
:20067900EC74FF9533F5FC2243A5042275E1272243D84043D90143DAC243E608D2AF22C08F
:20069900E0C0D030DF100534E4B534020535C2DF75E90075F97053D8C0D0D0D0E03275CFE2
:0406B90093D2C622F0
:200E28000A54797065206469676974733B20656E6420772F2300202020202025632563250A
:200E48006325632563002563000D456D62656464656420436F6E74726F6C2044726976655D
:1B0E6800204D6F746F7220436F6E74726F6C0A000D0A52616E67652025750075
:06008000E478FFF6D8FD54
:20005E007900E94400601B7A00900E8E785175AF00E493F2A308B8000205AFD9F4DAF2753E
:02007E00AFFFD2
:1B06BD0020F71130F6138883A88220F509F6A8837583002280FEF280F5F0223C
:1D06D800E5828511F0A4C582C0F08512F0A4D0F025F0C5838511F0A42583F58322C9
:2006F500C00F85810FC082058105810581E50F24FBF8A90F0909E6F70809E6F70809E6F79F
:20071500A80F080886820886830886F0120E08FAA3120E08FBA3120E08FF74012AFCE43BFA
:20073500FD8F06A80F080886820886830886F0EC1206BDA3ED1206BDA3EE1206BD8A828B91
:20075500838FF0A80F08E61206BD850F81D00F2285820C85830D85F00E75480C754900754B
:200775004A4085084B85094C850A4D850B4E9006F51208E6AE82AF83AB0CAC0DAD0E8B8249
:200795008C838DF0E41206BD8E828F8322C00F85810FE50F24F8FF8F4EE50F24FBFF8F4802
:2007B500754900754A40E50F24F8F8864B08864C08864D9006F51208E6AE82AF83E50F24D4
:1B07D500FBF886030886040886058B828C838DF0E41206BD8E828F83D00F22F3
:200086007800E84400600A790175AF00E4F309D8FC7850E84400600C7901900001E4F0A318
:0400A600D8FCD9FAAF
:2007F000C00F85810F1200FCD00F2285824B85834C85F04DE4F548F549F54A85104E900776
:20081000F00208E6C00F85810FE50F24FBFF8F4EE4F548F549F54AE50F24FBF8864B08860D
:0D0830004C08864D9007F01208E6D00F220C
:20083D00AF82C03EC03FC04012084A8007C03CC03D8F82221581158115810546E4B5460268
:20085D00054722AF8274302FFF24C6500A74072FFF3000034307208F8202083DE582FFC4FE
:20087D00540FF582C007120860D007740F5FF582020860858211854112854213854314857B
:20089D004415AA45751620EA2AFAE515235401FF8A064EFAE5122512F512E51333F513E5A4
:2008BD001433F514E51533F515C3EA95114008EAC39511FA431201D516CD851241851342EC
:2008DD008514438515448A452285823C85833D85483E85493F854A40E4F546F547AD4BAEA0
:2008FD004CAF4D8D828E838FF0120E08FC74012DF54BE43EF54C8F4DECFF7003020DE9BF9A
:20091D0025028003020DE1C201C202C203C204C205C206C207C208754F007550007CFFAA3E
:20093D004BAB4CAE4D8A828B838EF0120E08FFA3AA82AB838A4B8B4C8E4DBF25078F82120C
:20095D00083D80998F5274D025525026E55224C64020BCFF12E55075F00AA4FD2F24D0F55F
:20097D005070C2D20280BEEC75F00AA42F24D0FC80B3BF2E07BCFFAD7C0080A98F05BD61C2
:20099D0000400CED248540075307DFD2008002C200BF2002806DBF2B028063BF2D0280595E
:2009BD00BF42028063BF43028068BF4403020B8BBF4603020BA1BF4803020942BF49030290
:2009DD000B8BBF4A03020942BF4C028040BF4F03020B92BF5003020B20BF5302805CBF544C
:2009FD0003020942BF5503020B97BF5803020B9CBF5A03020942020BA5D201020942D203FC
:200A1D00020942D204020942D206020942D20702094230060CE54E14FE8E4E8E01870780FE
:200A3D0011E54E24FEFE8E4E8E018705098706198D078F8212083D020BAEE54E24FDFE8EF8
:200A5D004E8E01870309870509870619198B418D428E438B828D838EF0C004120DF0AD82AC
:200A7D00AE83D004BCFF028D0420012AC3ED95505024E550C39DF550AE508E031EEB6014CC
:200A9D00758220C006C005C00412083DD004D005D00680E68E508C068541828542838543CD
:200ABD00F0120E08FCFF602F8E041EC374808CF063F08095F050208F82C006C00512083DD9
:200ADD00D005D006AA41AB42AC430ABA00010B8A418B428C4380C1200103020BAEC3ED95EB
:200AFD00504003020BAEE550C39DF550AE508E041EEC7003020BAC758220C00612083DD0E7
:200B1D000680EBE54E24FDFC8C4E8C01870209870309870419198A418B428C43AC43BC801C
:200B3D000040047F438014BC600040047F50800BBC400040047F4980027F588F82C00712F9
:200B5D00083D75823A12083D75823012083D75827812083DD007BF4902800BBF5002800664
:200B7D008542821208798541821208798023D205754F0A801C754F088017754F0A80127585
:200B9D004F10800DD20880098F8212083D80028E5030085CE54E24FCFE8E4E8E018702093F
:200BBD0087030987040987061919198A418B428C438E4475418375420E754380854153850C
:200BDD00425485435574012553FAE43554FCAE558A418C428E438553828554838555F012F6
:200BFD000E08FEFF70030208FA8F8212083D80CCE54F70030208FA75511C30062DE54E1463
:200C1D00FC8C4E8C01E7FA3395E0FBFCFE8A418B428C438E44200566AA417B007C007E00B2
:200C3D008A418B428C438E448054300721E54E24FCFE8E4E8E018702098703098704098736
:200C5D00061919198A418B428C438E448030E54E24FEFE8E4E8E01870409870619EE33958F
:200C7D00E0FBFA8C418E428B438A44200510AA41AB427C007E008A418B428C438E443005D4
:200C9D0022E54430E71BC3E49541FAE49542FBE49543FCE49544FE8A418B428C438E448061
:200CBD0002C205D209A9517E00754500854F82C006C001120890D001D00620090BE545C4F1
:200CDD00FCE7FB4CF7198002A7450EB209E54145424543454470D289518E05E550700375FC
:200CFD005001200224200121ED04FEAC50C3EE9C5015758220C006C005C00412083DD004D0
:200D1D00D005D0061C80E68C5030050E75822DC00512083DD00515508023ED602030030E9F
:200D3D0075822BC00512083DD0051550800F30040C758220C00512083DD00515502001229F
:200D5D00AE508E041EC3ED9C502B3002047C3080027C208C82C006C00512083DD005D00666
:200D7D0080E0C3ED95505008E550C39DF550800775500080028E50A9518D068E051EED60F8
:200D9D0026B20920090A09E7C4540FFD8D4580078705740F5DF545854582C006C001120822
:200DBD0060D001D00680D42001030208FAAE508E051EED70030208FA758220C00612083D4C
:130DDD00D00680EB8F8212083D0208FA8546828547832298
:0B0E83003C4E4F20464C4F41543E00B7
:180DF000AA82AB83120E086003A380F8C3E5829AF582E5839BF5832213
:0D005100758155120E24E582600302004EF9
:1C0E080020F71430F6148883A88220F507E6A88375830022E280F7E49322E022F9
:040E240075820022B1
:00000001FF
