:040000000200513277
:01000B0032C2
:0100130032BA
:01001B0032B2
:0100230032AA
:01002B0032A2
:01003300329A
:01003B003292
:01004300328A
:03004B00020D7330
:2000AA007532DC75330A7534107535097536AC75370DE4F538F539F53AF53BF53CF53DF58F
:2000CA003EF53FF540F541F542F543F544F545F546F547F548F549754A01F54B754C01F5AE
:0900EA004D754E01F54F02004E68
:03004E000205C9DF
:2000F30075B1677E007F011EBEFF011FEE4F70F7E5B130E7FB75B28822759850758920755A
:200113008DDCD28E438E10438780D29943A4012275FFDE75FFAD1200F312010C43E1044361
:20013300E34022AF8210990280FB8F992210980280FB85998212013685998222C01285811E
:2001530012E51224FBF886820886830886F012164AE5828583F045F070028062E51224FB65
:20017300FF8F0EE51224FBF8860B08860C08860D90000175F000120F7290000175F000126B
:20019300164AAE827F00C3EF9E501FEF2401F582E43400F583E0FDBD0A0DEF2401F582E443
:2001B3003400F583740DF00F80DC752801752900752A007527008E2B7582C6120465D0125A
:2001D3002275220074C025224017752D22752E00752F40752C007530017582C61204DB80C1
:2001F300E375230C752823752900752A40752700752B017582C612046522752D25752E0027
:20021300752F40752C017530027582C61204DB74FFB52505758200805F7F008F068EF00531
:20023300F07C017D008006EC2CFCED33FDD5F0F7AA257B00EA5204EB5205EC4D600774313D
:200253002FF58280330E8E07BE080040D0E52630E0057582398021E52630E10575822A8006
:2002730017E52630E205758230800DE52630E30575822380037582FF22AF82E4FDFEEF7037
:200293001DC006C00574BAC0E07416C0E07480C0E012014F158115811581D005D006C00682
:2002B300C0057408C0E0E4C0E07408C0E0E4C0E07408C0E0E4C0E07408C0E0E4C0E074086A
:2002D300C0E0E4C0E074D0C0E07416C0E07480C0E012014FE58124F3F58190A12075F00733
:2002F300E4120400D005D0067F00C007C006C00512020DAC82D005D006D0078C03BCFF0258
:200313008003BB2A17902710E4F5F0C007C006C005120400D005D006D00780CEBB232AC0BB
:2003330006C00512020DAC82D005D006BC2313902710E4F5F0C006C005120400D005D00617
:2003530080DD8D828E830203FFEBFA3395E0FCC007C006C005C004C003C002C002C00474EB
:20037300E0C0E07416C0E07480C0E012014FE58124FBF581D002D003D004D005D0068D140A
:200393008E1590000AC004C003C002120EE5A882A983D002D003D004D007EA28F8EC39F9F1
:2003B300E824D0FDE934FFFEC007C006C005C00312020DAC82D003D005D006D007ECB503DA
:2003D3001B902710E4F5F0C007C006C005C003120400D003D005D006D00780CC0FC3EF646E
:2003F30080948550030202FD8D828E8322AC82AD83AEF0FF780079007A007B00C3E89CE9AA
:200413009DEA9EEB9F500F08B8000909B900050ABA00E90B80E62220C7FDD2C530C3FDC2BE
:20043300C5C2C3228582C210C30280FB228582C2D2C410C30280FB2230C3FD85C282C2C3F3
:200453002230C3FDAFC2C2C3D2C410C30280FB8F8222AF82C00712042AD00774FE5FF58211
:200473001204378527821204377F00AD2B7E001DBDFF011E8F037C00C3EB9DEC64808EF02D
:2004930063F08095F0501FEF2528FCE43529FDAE2A8C828D838EF0121662F582C0071204B9
:2004B30037D0070F80C5AE2B7F001EBEFF011FEE2528FEEF3529FFAD2A8E828F838DF01267
:2004D3001662F58212044022AF82C00712042AD0078F0674FE5EF582C007120437852C8270
:2004F30012044012042AD00774014FF5821204377F00AD307E001DBDFF011E8F037C00C351
:20051300EB9DEC64808EF063F08095F0502ED2C2EF252DFCE4352EFDAE2FC007C006C005D8
:20053300C00412044BAB82D004D005D006D0078C828D838EF0EB120EBD0F80B6C2C2AE30F5
:200553007F001EBEFF011FEE252DFEEF352EFFAD2FC007C006C005120454AC82D005D0060E
:20057300D0078E828F838DF0EC120EBD22753123752831752900752A40752720752B017521
:200593008230120465753100752831752900752A40752721752B0175823012046575310084
:2005B300752831752900752A40752722752B01758230120465227E01E4FFFCFDFAFBF55223
:2005D300F553C007C006C005C004C003C002120123758220120136120D2F120D5A120D5E4B
:2005F300120DA2120D4D120580120C2185824A85834B120C7B85824C85834D120CD5858206
:200613004E85834F1201D474E3C0E07416C0E07480C0E012014F15811581158174F8C0E056
:200633007416C0E07480C0E012014F158115811581740DC0E07417C0E07480C0E012014F83
:20065300158115811581D002D003D004D005D006D007C007C006C005C004C003C002120B12
:2006730064A982D002D003D004D005D006D007B923E0A852A953C3E54094FAE541940040BB
:200693000302081F751414751500854082854183C007C006C005C004C003C002C001C00048
:2006B300120FFDE5828583F0D000D001D002D003D004D005D006D00745F070BAC007C00622
:2006D300C005C004C003C002C001C0001201D47422C0E07417C0E07480C0E012014F1581A4
:2006F30015811581D000D001D002D003D004D005D006D007BE0137BF0034C005C004C003EA
:20071300C002C001C0007437C0E07417C0E07480C0E012014F158115811581D000D001D0E4
:2007330002D003D004D0057E027F000207E4BE0236BF0033C005C004C003C002C001C000C5
:20075300744CC0E07417C0E07480C0E012014F158115811581D000D001D002D003D004D059
:20077300057E037F00806ABE0336BF0033C005C004C003C002C001C0007461C0E07417C03F
:20079300E07480C0E012014F158115811581D000D001D002D003D004D0057E047F0080310D
:2007B300C005C004C003C002C001C0007476C0E07417C0E07480C0E012014F1581158115AB
:2007D30081D000D001D002D003D004D0057E017F00C007C006C005C004C003C002C001C07C
:2007F30000120943D000D001D002D003D004D005D006D007E5382CFCE5393DFDE53A2AFA0C
:20081300E53B3BFB08B8000109020689885289538C828D83855214855315C003C002120DC4
:20083300A885823C85833DD002D0038A828B83855214855315120DA885823E85833FC03E8D
:20085300C03F748BC0E07417C0E07480C0E012106EE58124FBF581C03CC03D7494C0E07488
:2008730017C0E07480C0E012106EE58124FBF581E4F540F54114C39532F5EC74FF9533F591
:20089300FCC3E5409402E541940040F5C03CC03D749DC0E07417C0E07480C0E012106EE5FE
:2008B3008124FBF581C03EC03F74A6C0E07417C0E07480C0E012106EE58124FBF581E4F535
:2008D30040F541C3E540940FE541940040F5120943120A7E120AD3E53AC3953EFEE53B95C6
:2008F3003FFFE538C3953CFCE539953DFDC048C049C046C047C006C007C004C005C03AC01F
:200913003BC038C03974B0C0E07417C0E07480C0E012106EE58124F1F58180A222AFAA7483
:20093300DF5FF5AA43AA10E5AA30E5FB859C8222E4FEFFF559F55AFAFB752D54752E0075E5
:200953002F40752C27753001758230C007C006C003C0021204DBD002D003D006D007E4F552
:2009730042F543C3E5429402E543940040F574035554FDBD03028037752D54752E00752FA6
:2009930040752C27753001758230C007C006C003C0021204DBD002D003D006D007E4F542FF
:2009B300F543C3E5429402E543940050C180F3752D54752E00752F40752CA87530047582C6
:2009D30030C007C006C003C0021204DBD002D003D006D007AD557C00EDC4CCC4540F6CCC25
:2009F300540FCC6CCC30E30244F0FDEC2EFEED3FFFAD577C00EDC4CCC4540F6CCC540FCC69
:200A13006CCC30E30244F0FDEC2559F559ED355AF55A0ABA00010BC3EA9407EB64809480C7
:200A3300500302094C7514087515008E828F8312167EAE82AF8375140875150085598285B4
:200A53005A83C007C00612167E85825985835AD006D007EEC3953CF538EF953DF539E53E43
:200A73002559F53AE53F355AF53B22E538C3953CF514E539953DF515854A82854B83120E39
:200A9300E5AE82AF83E532C39EF548E5339FF549C374349548740D954950067548347549A6
:200AB3000DC3E5489534E5499535500685344885354974FFC39548F5EA74FF9549F5FA22B7
:200AD300E53AC3953EF582E53B953FF583854E14854F15120EE5120ED8AE82AF83E538C35C
:200AF300953CF582E539953DF583854C14854D15C007C006120EE5120ED8AC82AD83D006A9
:200B1300D007C3EC9EED9F500DE532C39EF546E5339FF547800BE532C39CF546E5339DF529
:200B330047C3E5369546E537954750067546AC75470DC3E5469532E547953350067546DC8E
:200B530075470A74FFC39546F5EC74FF9547F5FC2212020DAF82E4F540F541C3E540940546
:200B7300E541940040F5BFFF1712020DAF82E4F540F541C3E5409405E541940050E880F317
:200B93008F06BFFF02801BC00612020DAF82D006E4F540F541C3E5409405E541940050E2A8
:200BB30080F38E8222755B20755C20755D207F00C007120B64AE82D007BE2A02800DBE2384
:200BD300028008EF245BF8A606800EBE23028034BE2A06EF245BF8762EEF245BF987067DD8
:200BF30000C007C006C00574E0C0E07416C0E07480C0E012014FE58124FBF581D0070FBFDC
:200C1300030040AC90005B75F040120DD1221201D474EBC0E07417C0E07480C0E012014F29
:200C33001581158115817400C0E07418C0E07480C0E012014F158115811581120BB8AE82E2
:200C5300AF83C007C006C006C0077410C0E07418C0E07480C0E012106EE58124FBF581D0F6
:200C730006D0078E828F83221201D474EBC0E07417C0E07480C0E012014F15811581158177
:200C93007425C0E07418C0E07480C0E012014F158115811581120BB8AE82AF83C007C00660
:200CB300C006C0077437C0E07418C0E07480C0E012106EE58124FBF581D006D0078E828FB2
:200CD30083221201D474EBC0E07417C0E07480C0E012014F1581158115817452C0E07418A1
:200CF300C0E07480C0E012014F158115811581120BB8AE82AF83C007C006C006C007746460
:200D1300C0E07418C0E07480C0E012106EE58124FBF581D006D0078E828F832253BDBF43D2
:200D3300A50143A504AF9074404FF59053A7BFAFA7747F5FF5A743B0802275D10375AA80CD
:200D530043AB0175AC062275E1272253D9F143D90143D84043DAC243DCC243E608D2AF2280
:200D7300C0E0C0D030DF200540E4B5400205410542E4B5420205430544E4B544020545C2FB
:150D9300DF75E90075F97053D8C0D0D0D0E03275CF93D2C62232
:2016BA000A54797065206469676974733B20656E6420772F23002020202020256325632570
:2016DA006325632563002563002050757420636172206F6E206C6576656C2020200020731E
:2016FA0075726661636520616E6420707265737320200020706F756E642028232920202040
:20171A00202020202020200020202020202020202020202020202020202020200020526578
:20173A006164696E6720616363656C202020202020002052656164696E6720616363656CC2
:20175A002E2020202020002052656164696E6720616363656C2E2E2020202000205265619B
:20177A0064696E6720616363656C2E2E2E2020200079303A2025640A0D0078303A2025647D
:20179A000A0D002535642D78300A0D002535642D79300A0D0A002535642D67782020253555
:2017BA00642D677920202535642D66677820202535642D66677920202534642D4D6F746FF4
:2017DA00505720202534642D5374657250570A0D00506C65617365207479706520696E206F
:2017FA007468652020007374656572696E67206761696E3A20000D4761696E205374656597
:20181A0072696E673A2025750A0D00647269766572206761696E202878293A200047616954
:20183A006E204472697665204D6F746F72202878293A2025750A0D006472697665722067CE
:20185A0061696E202879293A20004761696E204472697665204D6F746F72202879293A20E4
:05187A0025750A0D00B8
:200DA8007A10E4FBFCE58225E0F582E58333F583EB33FBEC33FCEB9514F5F0EC9515400647
:090DC800FCABF0438201DADD22EC
:06008000E478FFF6D8FD54
:200DD100AD82AE83AFF07B007C008D008E018F02888289838AF0121662F5086035C374B9C3
:200DF1008508F063F08095F04008E508648094B05020888289838AF0121662F508742DB5D3
:200E11000802800E742BB50802800708B800C10980BE880589068A07888289838AF0121617
:200E310062FAE4BA2D0104F9F87003BA2B050DBD00010E8D828E838FF0121662FA6058C3B0
:200E5100EA648094B0405074B98AF063F08095F04045C0008B148C1590000AC007C006C074
:200E710005C002C000120EE585820985830AD000D002D005D006D007EAF93395E0FAE924FD
:200E9100D0F9EA34FFFAE92509FBEA350AFC0DBD00010ED000809CE86009C3E49BFEE49C54
:0C0EB100FF80048B068C078E828F83224A
:20005E007900E94400601B7A0090188A785175AF00E493F2A308B8000205AFD9F4DAF27538
:02007E00AFFFD2
:1B0EBD0020F71130F6138883A88220F509F6A8837583002280FEF280F5F02234
:0D0ED800E58330E7076382FF6383FFA322F9
:1D0EE500E5828514F0A4C582C0F08515F0A4D0F025F0C5838514F0A42583F58322AB
:200F0200C012858112C082058105810581E51224FBF8A9120909E6F70809E6F70809E6F77D
:200F2200A812080886820886830886F0121662FAA3121662FBA3121662FF74012AFCE43BBC
:200F4200FD8F06A812080886820886830886F0EC120EBDA3ED120EBDA3EE120EBD8A828B61
:200F6200838FF0A81208E6120EBD851281D0122285820F85831085F011756A0F756B0075D5
:200F82006C40850B6D850C6E850D6F850E70900F02121140AE82AF83AB0FAC10AD118B82FC
:200FA2008C838DF0E4120EBD8E828F8322C012858112E51224F8FF8F70E51224FBFF8F6A95
:200FC200756B00756C40E51224F8F8866D08866E08866F900F02121140AE82AF83E5122496
:1B0FE200FBF886030886040886058B828C838DF0E4120EBD8E828F83D01222D3
:200FFD00E514451560467A01E51425E0F514E515334012F515E5829514E583951540030A61
:20101D0080E6C3E51513F515E51413F514C3E5829514F5F0E58395154005F58385F082C31D
:0D103D00E51513F515E51413F514DAE1229D
:200086007800E84400600A790175AF00E4F309D8FC7850E84400600C7901900001E4F0A318
:0400A600D8FCD9FAAF
:20104A00C012858112120136D0122285826D85836E85F06FE4F56AF56BF56C8513709010D5
:20106A004A021140C012858112E51224FBFF8F70E4F56AF56BF56CE51224FBF8866D088638
:0D108A006E08866F90104A121140D012229D
:20109700AF82C060C061C0621210A48007C05EC05F8F82221581158115810568E4B56802B6
:2010B700056922AF8274302FFF24C6500A74072FFF3000034307208F82021097E582FFC418
:2010D700540FF582C0071210BAD007740F5FF5820210BA85821485631585641685651785E3
:2010F7006618AA67751920EA2AFAE518235401FF8A064EFAE5152515F515E51633F516E5E6
:201117001733F517E51833F518C3EA95144008EAC39514FA431501D519CD85156385166427
:201137008517658518668A672285825E85835F856A60856B61856C62E4F568F569AD6DAE5B
:201157006EAF6F8D828E838FF0121662FC74012DF56DE43EF56E8F6FECFF7003021643BFC8
:201177002502800302163BC201C202C203C204C205C206C207C2087571007572007CFFAA35
:201197006DAB6EAE6F8A828B838EF0121662FFA3AA82AB838A6D8B6E8E6FBF25078F82127C
:2011B700109780998F7474D025745026E57424C64020BCFF12E57275F00AA4FD2F24D0F513
:2011D7007270C2D20280BEEC75F00AA42F24D0FC80B3BF2E07BCFFAD7C0080A98F05BD613E
:2011F70000400CED248540075307DFD2008002C200BF2002806DBF2B028063BF2D028059FC
:20121700BF42028063BF43028068BF44030213E5BF46030213FBBF480302119CBF49030207
:2012370013E5BF4A0302119CBF4C028040BF4F030213ECBF500302137ABF5302805CBF5461
:201257000302119CBF55030213F1BF58030213F6BF5A0302119C0213FFD20102119CD2034D
:2012770002119CD20402119CD20602119CD20702119C30060CE57014FE8E708E01870780D0
:2012970011E57024FEFE8E708E018705098706198D078F82121097021408E57024FDFE8E6B
:2012B700708E01870309870509870619198B638D648E658B828D838EF0C00412164AAD825F
:2012D700AE83D004BCFF028D0420012AC3ED95725024E572C39DF572AE728E031EEB6014E2
:2012F700758220C006C005C004121097D004D005D00680E68E728C06856382856483856581
:20131700F0121662FCFF602F8E041EC374808CF063F08095F050208F82C006C005121097B2
:20133700D005D006AA63AB64AC650ABA00010B8A638B648C6580C1200103021408C3ED9559
:20135700724003021408E572C39DF572AE728E041EEC7003021406758220C006121097D0D4
:201377000680EBE57024FDFC8C708C01870209870309870419198A638B648C65AC65BC80EE
:201397000040047F438014BC600040047F50800BBC400040047F4980027F588F82C0071297
:2013B700109775823A121097758230121097758278121097D007BF4902800BBF500280067A
:2013D7008564821210D38563821210D38023D20575710A801C757108801775710A801275B5
:2013F7007110800DD20880098F8212109780028E7230085CE57024FCFE8E708E01870209F3
:2014170087030987040987061919198A638B648C658E6675637F7564187565808563758571
:20143700647685657774012575FAE43576FCAE778A638C648E658575828576838577F012D9
:201457001662FEFF70030211548F8212109780CCE571700302115475731F30062DE570140D
:20147700FC8C708C01E7FA3395E0FBFCFE8A638B648C658E66200566AA637B007C007E0084
:201497008A638B648C658E668054300721E57024FCFE8E708E018702098703098704098708
:2014B700061919198A638B648C658E668030E57024FEFE8E708E01870409870619EE339561
:2014D700E0FBFA8C638E648B658A66200510AA63AB647C007E008A638B648C658E6630051E
:2014F70022E56630E71BC3E49563FAE49564FBE49565FCE49566FE8A638B648C658E6680CD
:2015170002C205D209A9737E00756700857182C006C0011210EAD001D00620090BE567C4A4
:20153700FCE7FB4CF7198002A7670EB209E56345644565456670D289738E05E572700375AB
:201557007201200224200121ED04FEAC72C3EE9C5015758220C006C005C004121097D004C7
:20157700D005D0061C80E68C7230050E75822DC005121097D00515728023ED602030030E97
:2015970075822BC005121097D0051572800F30040C758220C005121097D005157220012235
:2015B700AE728E041EC3ED9C502B3002047C3080027C208C82C006C005121097D005D00680
:2015D70080E0C3ED95725008E572C39DF572800775720080028E72A9738D068E051EED60CA
:2015F70026B20920090A09E7C4540FFD8D6780078705740F5DF567856782C006C001121052
:20161700BAD001D00680D4200103021154AE728E051EED7003021154758220C00612109745
:13163700D00680EB8F82121097021154856882856983222C
:0B187F003C4E4F20464C4F41543E00B1
:18164A00AA82AB831216626003A380F8C3E5829AF582E5839BF583224E
:0D0051007581771216B6E582600302004E3D
:1C16620020F71430F6148883A88220F507E6A88375830022E280F7E49322E02297
:20167E00C2D5E58330E70DD2D5E4C39582F582E49583F583E51530E70DB2D5E4C39514F5EF
:18169E0014E49515F515120DA830D50BE4C39582F582E49583F58322E6
:0416B6007582002217
:00000001FF
