:040000000200513277
:01000B0032C2
:0100130032BA
:01001B0032B2
:0100230032AA
:01002B0032A2
:01003300329A
:01003B003292
:01004300328A
:03004B00020BC3E2
:2000AA007532DC75330A75341075350975363475370DE4F538F539F53AF53BF53CF53DF507
:1200CA003EF53FF540F541F542F543F544F54502004E15
:03004E000205B2F6
:2000DC0075B1677E007F011EBEFF011FEE4F70F7E5B130E7FB75B288227598507589207571
:2000FC008DDCD28E438E10438780D29943A4012275FFDE75FFAD1200DC1200F543E10443A8
:20011C00E34022AF8210990280FB8F992210980280FB85998212011F85998222C01285814C
:20013C0012E51224FBF886820886830886F012143DE5828583F045F070028062E51224FB8B
:20015C00FF8F0EE51224FBF8860B08860C08860D90000175F000120DB290000175F0001244
:20017C00143DAE827F00C3EF9E501FEF2401F582E43400F583E0FDBD0A0DEF2401F582E469
:20019C003400F583740DF00F80DC752801752900752A007527008E2B7582C612044ED01288
:2001BC002275220074C025224017752D22752E00752F40752C007530017582C61204C480EF
:2001DC00E375230C752823752900752A40752700752B017582C612044E22752D25752E0055
:2001FC00752F40752C017530027582C61204C474FFB52505758200805F7F008F068EF00560
:20021C00F07C017D008006EC2CFCED33FDD5F0F7AA257B00EA5204EB5205EC4D6007743154
:20023C002FF58280330E8E07BE080040D0E52630E0057582398021E52630E10575822A801D
:20025C0017E52630E205758230800DE52630E30575822380037582FF22AF82E4FDFEEF704E
:20027C001DC006C00574ADC0E07414C0E07480C0E0120138158115811581D005D006C006BF
:20029C00C0057408C0E0E4C0E07408C0E0E4C0E07408C0E0E4C0E07408C0E0E4C0E0740881
:2002BC00C0E0E4C0E074C3C0E07414C0E07480C0E0120138E58124F3F58190A12075F00770
:2002DC00E41203E9D005D0067F00C007C006C0051201F6AC82D005D006D0078C03BCFF029F
:2002FC008003BB2A17902710E4F5F0C007C006C0051203E9D005D006D00780CEBB232AC0EB
:20031C0006C0051201F6AC82D005D006BC2313902710E4F5F0C006C0051203E9D005D0065E
:20033C0080DD8D828E830203E8EBFA3395E0FCC007C006C005C004C003C002C002C0047419
:20035C00D3C0E07414C0E07480C0E0120138E58124FBF581D002D003D004D005D0068D1447
:20037C008E1590000AC004C003C002120D25A882A983D002D003D004D007EA28F8EC39F9C9
:20039C00E824D0FDE934FFFEC007C006C005C0031201F6AC82D003D005D006D007ECB50309
:2003BC001B902710E4F5F0C007C006C005C0031203E9D003D005D006D00780CC0FC3EF649D
:2003DC0080948550030202E68D828E8322AC82AD83AEF0FF780079007A007B00C3E89CE9D8
:2003FC009DEA9EEB9F500F08B8000909B900050ABA00E90B80E62220C7FDD2C530C3FDC2D6
:20041C00C5C2C3228582C210C30280FB228582C2D2C410C30280FB2230C3FD85C282C2C30A
:20043C002230C3FDAFC2C2C3D2C410C30280FB8F8222AF82C007120413D00774FE5FF5823F
:20045C001204208527821204207F00AD2B7E001DBDFF011E8F037C00C3EB9DEC64808EF072
:20047C0063F08095F0501FEF2528FCE43529FDAE2A8C828D838EF0121455F582C0071204DF
:20049C0020D0070F80C5AE2B7F001EBEFF011FEE2528FEEF3529FFAD2A8E828F838DF01295
:2004BC001455F58212042922AF82C007120413D0078F0674FE5EF582C007120420852C82DB
:2004DC00120429120413D00774014FF5821204207F00AD307E001DBDFF011E8F037C00C3AD
:2004FC00EB9DEC64808EF063F08095F0502ED2C2EF252DFCE4352EFDAE2FC007C006C005F0
:20051C00C004120434AB82D004D005D006D0078C828D838EF0EB120CFD0F80B6C2C2AE30E5
:20053C007F001EBEFF011FEE252DFEEF352EFFAD2FC007C006C00512043DAC82D005D0063C
:20055C00D0078E828F838DF0EC120CFD22753123752831752900752A40752720752B0175FA
:20057C00823012044E753100752831752900752A40752721752B0175823012044E753100C9
:20059C00752831752900752A40752722752B0175823012044E2212010C75822012011F126E
:2005BC000B7F120BAA120BAE120BE2120B9D12056974D6C0E07414C0E07480C0E0120138D9
:2005DC0015811581158174F0C0E07414C0E07480C0E0120E61158115811581120753C03AD4
:2005FC00C03BC038C039740AC0E07415C0E07480C0E0120E61E58124F9F58122AFAA74DFD0
:20061C005FF5AA43AA10E5AA30E5FB859C8222853814853915854682854783120D25AE82AB
:20063C00AF83E532C39EF544E5339FF545C3E5369544E53795455006853644853745C3E51F
:20065C00449534E5459535500685344485354574FFC39544F5EA74FF9545F5FA22853A140C
:20067C00853B15854882854983120D25E5828583F024DCF542740A35F0F543853882853937
:20069C0083120D18858214858315854A82854B83120D25AE82AF83EE2542F542EF3543F51A
:2006BC0043853882853983120D18AE82AF83EE253AFEEF353BFFEE254EF54EEF354FF54FBE
:2006DC00853882853983120D18858214858315854A82854B83120D25AE82AF83854E148559
:2006FC004F15854C82854D83C007C006120D25AC82AD83D006D007EC2EFEED3FFFEE25425E
:20071C00F542EF3543F543C3E5369542E5379543500675423475430DC3E5429532E54395CA
:20073C003350067542DC75430A74FFC39542F5EC74FF9543F5FC22E4FEFFF555F556FAFB08
:20075C00752D50752E00752F40752C27753001758230C007C006C003C0021204C4D002D0E1
:20077C0003D006D007E4F540F541C3E5409401E541940040F574035550FDBD0302803775EB
:20079C002D50752E00752F40752C27753001758230C007C006C003C0021204C4D002D00313
:2007BC00D006D007E4F540F541C3E5409401E541940050C180F3752D50752E00752F407578
:2007DC002CA8753004758230C007C006C003C0021204C4D002D003D006D007AD517C00EDB4
:2007FC00C4CCC4540F6CCC540FCC6CCC30E30244F0FDEC2EFEED3FFFAD537C00EDC4CCC441
:20081C00540F6CCC540FCC6CCC30E30244F0FDEC2555F555ED3556F5560ABA00010BC3EA84
:20083C009407EB64809480500302075C7514087515008E828F83121471AE82AF837514089F
:20085C00751500855582855683C007C006121471858255858356D006D007EEC3953CF538FE
:20087C00EF953DF539E555C3953EF53AE556953FF53B221201F6AF82E4F540F541C3E5409C
:20089C009405E541940040F5BFFF171201F6AF82E4F540F541C3E5409405E541940050E8E3
:2008BC0080F38F06BFFF02801BC0061201F6AF82D006E4F540F541C3E5409405E541940059
:2008DC0050E280F38E82221201BD741EC0E07415C0E07480C0E012013815811581158174E5
:2008FC0033C0E07415C0E07480C0E01201381581158115817448C0E07415C0E07480C0E026
:20091C00120138158115811581745DC0E07415C0E07480C0E0120138158115811581120859
:20093C008FAF82BF2A028003BF23F3BF2A0280030209CD1201BD7467C0E07415C0E07480EA
:20095C00C0E0120138158115811581747CC0E07415C0E07480C0E012013815811581158174
:20097C007491C0E07415C0E07480C0E012013815811581158112088FAF82BF3102800DBFD4
:20099C0032028008BF33028003BF34E9BF31077D007E00020AAEBF32077D847E03020AAE4C
:2009BC00BF33077D087E07020AAE7D8C7E0A020AAE1201BD74A6C0E07415C0E07480C0E0CC
:2009DC00120138158115811581E4F55AF55B12088FAF82BF2A02800EBF23028009E55A2448
:2009FC0057F8A6078013BF23028043BF2A0B155A74FFB55A02155B8022E55A2457F9870270
:200A1C007C00C002C00474D3C0E07414C0E07480C0E0120138E58124FBF581055AE4B55A7D
:200A3C0002055BC3E55A9403E55B940040A090005775F040120C11AD82AE838D148E1590FC
:200A5C00000A120D25AD82AE83C374109D740E9E50401201BD74BEC0E07415C0E07480C0B9
:200A7C00E012013815811581158174D3C0E07415C0E07480C0E0120138158115811581E4D8
:200A9C00F540F541C3E5409464E541940040F50209CDC006C0051201BD74BEC0E07415C0B2
:200ABC00E07480C0E0120138158115811581D005D00675140A7515008D828E83C006C00526
:200ADC00120BE8AB82AC83C003C00474E8C0E07415C0E07480C0E0120138E58124FBF58113
:200AFC0074FCC0E07415C0E07480C0E0120138158115811581D005D006E4F540F541C3E55E
:200B1C00409464E541940040F5C006C0051201BD74BEC0E07415C0E07480C0E01201381548
:200B3C0081158115817407C0E07416C0E07480C0E0120138158115811581741CC0E074164C
:200B5C00C0E07480C0E012013815811581158112088FAF82D005D006BF23030208E38D82D2
:200B7C008E832253BDBF43A50143A504AF9074404FF59053A7BFAFA7747F5FF5A743B0804B
:200B9C002275D10375AA8043AB0175AC062275E1272253D9F143D90143D84043DAC243DCC5
:200BBC00C243E608D2AF22C0E0C0D030DF100540E4B540020541C2DF75E90075F97053D8C6
:0C0BDC00C0D0D0D0E03275CF93D2C6223A
:2014AD000A54797065206469676974733B20656E6420772F2300202020202025632563257F
:2014CD006325632563002563000D456D62656464656420436F6E74726F6C204361722E2E5A
:2014ED002E0A00456D62656464656420436F6E74726F6C204361722E2E2E0A0D0067783AAC
:20150D00202564202020202067793A2026640A0D0053656C656374202A20746F2073656C89
:20152D0065637420610068656164696E672E2053656C656374202320746F006D616E75610B
:20154D006C6C792074797065206120202020200068656164696E672E200048656164696EC3
:20156D00677320617661696C61626C653A20002020202020312D30202020322D39302020D3
:20158D0020202000202020332D313830202020342D3237302020202000496E707574206813
:2015AD00656164696E67206E6F773A20202020200020202020202020202020202020202088
:2015CD002020202020002020496E76616C69642068656164696E672120200020536574209A
:2015ED0068656164696E6720746F202575200020646567726565732E2000205072657373B7
:20160D00202320746F20676F206261636B200020507265737320616E7920746F20636F6EB8
:04162D00742E2000F7
:200BE8007A10E4FBFCE58225E0F582E58333F583EB33FBEC33FCEB9514F5F0EC9515400609
:090C0800FCABF0438201DADD22AD
:06008000E478FFF6D8FD54
:200C1100AD82AE83AFF07B007C008D008E018F02888289838AF0121455F5086035C374B993
:200C31008508F063F08095F04008E508648094B05020888289838AF0121455F508742DB5A3
:200C51000802800E742BB50802800708B800C10980BE880589068A07888289838AF01214DB
:200C710055FAE4BA2D0104F9F87003BA2B050DBD00010E8D828E838FF0121455FA6058C38E
:200C9100EA648094B0405074B98AF063F08095F04045C0008B148C1590000AC007C006C036
:200CB10005C002C000120D2585820985830AD000D002D005D006D007EAF93395E0FAE92480
:200CD100D0F9EA34FFFAE92509FBEA350AFC0DBD00010ED000809CE86009C3E49BFEE49C16
:0C0CF100FF80048B068C078E828F83220C
:20005E007900E94400601B7A0090163C785175AF00E493F2A308B8000205AFD9F4DAF27588
:02007E00AFFFD2
:1B0CFD0020F71130F6138883A88220F509F6A8837583002280FEF280F5F022F6
:0D0D1800E58330E7076382FF6383FFA322BA
:1D0D2500E5828514F0A4C582C0F08515F0A4D0F025F0C5838514F0A42583F583226C
:200D4200C012858112C082058105810581E51224FBF8A9120909E6F70809E6F70809E6F73F
:200D6200A812080886820886830886F0121455FAA3121455FBA3121455FF74012AFCE43BAB
:200D8200FD8F06A812080886820886830886F0EC120CFDA3ED120CFDA3EE120CFD8A828B69
:200DA200838FF0A81208E6120CFD851281D0122285820F85831085F01175680F756900755D
:200DC2006A40850B6B850C6C850D6D850E6E900D42120F33AE82AF83AB0FAC10AD118B8299
:200DE2008C838DF0E4120CFD8E828F8322C012858112E51224F8FF8F6EE51224FBFF8F681D
:200E0200756900756A40E51224F8F8866B08866C08866D900D42120F33AE82AF83E5122432
:1B0E2200FBF886030886040886058B828C838DF0E4120CFD8E828F83D0122256
:200086007800E84400600A790175AF00E4F309D8FC7850E84400600C7901900001E4F0A318
:0400A600D8FCD9FAAF
:200E3D00C01285811212011FD0122285826B85836C85F06DE4F568F569F56A85136E900E0B
:200E5D003D020F33C012858112E51224FBFF8F6EE4F568F569F56AE51224FBF8866B08866D
:0D0E7D006C08866D900E3D120F33D01222CE
:200E8A00AF82C05EC05FC060120E978007C05CC05D8F82221581158115810566E4B56602E2
:200EAA00056722AF8274302FFF24C6500A74072FFF3000034307208F82020E8AE582FFC438
:200ECA00540FF582C007120EADD007740F5FF582020EAD8582148561158562168563178516
:200EEA006418AA65751920EA2AFAE518235401FF8A064EFAE5152515F515E51633F516E5F9
:200F0A001733F517E51833F518C3EA95144008EAC39514FA431501D519CD8515618516623A
:200F2A008517638518648A652285825C85835D85685E85695F856A60E4F566F567AD6BAE86
:200F4A006CAF6D8D828E838FF0121455FC74012DF56BE43EF56C8F6DECFF7003021436BFFF
:200F6A002502800302142EC201C202C203C204C205C206C207C208756F007570007CFFAA57
:200F8A006BAB6CAE6D8A828B838EF0121455FFA3AA82AB838A6B8B6C8E6DBF25078F8212A6
:200FAA000E8A80998F7274D025725026E57224C64020BCFF12E57075F00AA4FD2F24D0F539
:200FCA007070C2D20280BEEC75F00AA42F24D0FC80B3BF2E07BCFFAD7C0080A98F05BD614F
:200FEA0000400CED248540075307DFD2008002C200BF2002806DBF2B028063BF2D0280590B
:20100A00BF42028063BF43028068BF44030211D8BF46030211EEBF4803020F8FBF49030243
:20102A0011D8BF4A03020F8FBF4C028040BF4F030211DFBF500302116DBF5302805CBF54AC
:20104A0003020F8FBF55030211E4BF58030211E9BF5A03020F8F0211F2D201020F8FD203B6
:20106A00020F8FD204020F8FD206020F8FD207020F8F30060CE56E14FE8E6E8E018707801F
:20108A0011E56E24FEFE8E6E8E018705098706198D078F82120E8A0211FBE56E24FDFE8E9F
:2010AA006E8E01870309870509870619198B618D628E638B828D838EF0C00412143DAD8285
:2010CA00AE83D004BCFF028D0420012AC3ED95705024E570C39DF570AE708E031EEB6014F9
:2010EA00758220C006C005C004120E8AD004D005D00680E68E708C068561828562838563A7
:20110A00F0121455FCFF602F8E041EC374808CF063F08095F050208F82C006C005120E8ADF
:20112A00D005D006AA61AB62AC630ABA00010B8A618B628C6380C12001030211FBC3ED9584
:20114A007040030211FBE570C39DF570AE708E041EEC70030211F9758220C006120E8AD01A
:20116A000680EBE56E24FDFC8C6E8C01870209870309870419198A618B628C63AC63BC8009
:20118A000040047F438014BC600040047F50800BBC400040047F4980027F588F82C00712A6
:2011AA000E8A75823A120E8A758230120E8A758278120E8AD007BF4902800BBF50028006C5
:2011CA00856282120EC6856182120EC68023D205756F0A801C756F088017756F0A801275EC
:2011EA006F10800DD20880098F82120E8A80028E7030085CE56E24FCFE8E6E8E0187020919
:20120A0087030987040987061919198A618B628C638E6475613175621675638085617385E2
:20122A00627485637574012573FAE43574FCAE758A618C628E638573828574838575F01202
:20124A001455FEFF7003020F478F82120E8A80CCE56F7003020F4775711F30062DE56E145E
:20126A00FC8C6E8C01E7FA3395E0FBFCFE8A618B628C638E64200566AA617B007C007E009F
:20128A008A618B628C638E648054300721E56E24FCFE8E6E8E018702098703098704098723
:2012AA00061919198A618B628C638E648030E56E24FEFE8E6E8E01870409870619EE33957C
:2012CA00E0FBFA8C618E628B638A64200510AA61AB627C007E008A618B628C638E64300541
:2012EA0022E56430E71BC3E49561FAE49562FBE49563FCE49564FE8A618B628C638E6480EE
:20130A0002C205D209A9717E00756500856F82C006C001120EDDD001D00620090BE565C4CA
:20132A00FCE7FB4CF7198002A7650EB209E56145624563456470D289718E05E570700375C8
:20134A007001200224200121ED04FEAC70C3EE9C5015758220C006C005C004120E8AD004E9
:20136A00D005D0061C80E68C7030050E75822DC005120E8AD00515708023ED602030030EB9
:20138A0075822BC005120E8AD0051570800F30040C758220C005120E8AD005157020012266
:2013AA00AE708E041EC3ED9C502B3002047C3080027C208C82C006C005120E8AD005D006A0
:2013CA0080E0C3ED95705008E570C39DF570800775700080028E70A9718D068E051EED60E5
:2013EA0026B20920090A09E7C4540FFD8D6580078705740F5DF565856582C006C001120E69
:20140A00ADD001D00680D4200103020F47AE708E051EED7003020F47758220C006120E8A90
:13142A00D00680EB8F82120E8A020F47856682856783225D
:0B1631003C4E4F20464C4F41543E0001
:18143D00AA82AB831214556003A380F8C3E5829AF582E5839BF583226C
:0D0051007581751214A9E582600302004E4E
:1C14550020F71430F6148883A88220F507E6A88375830022E280F7E49322E022A6
:20147100C2D5E58330E70DD2D5E4C39582F582E49583F583E51530E70DB2D5E4C39514F5FE
:1814910014E49515F515120BE830D50BE4C39582F582E49583F58322B7
:0414A9007582002226
:00000001FF
