:040000000200513277
:01000B0032C2
:0100130032BA
:01001B0032B2
:0100230032AA
:01002B0032A2
:01003300329A
:01003B003292
:01004300328A
:03004B00020DD3D0
:2000AA007533DC75340A75351075360975373475380D75393CE4F53AF53BF53CF53DF53E34
:1800CA00F53F7540E07541C075423CF543F54475458075463F02004EF7
:03004E000205B8F0
:2000E20075B1677E007F011EBEFF011FEE4F70F7E5B130E7FB75B28822759850758920756B
:200102008DDCD28E438E10438780D29943A4012275FFDE75FFAD1200E21200FB43E1044395
:20012200E34022AF8210990280FB8F992210980280FB85998212012585998222C01885813A
:2001420018E51824FBF886820886830886F0121DA0E5828583F045F070028062E51824FB07
:20016200FF8F14E51824FBF8861108861208861390000175F0001215E290000175F00012E8
:200182001DA0AE827F00C3EF9E501FEF2401F582E43400F583E0FDBD0A0DEF2401F582E4F7
:2001A2003400F583740DF00F80DC752901752A00752B007528008E2C7582C6120454D01871
:2001C2002275230074C025234017752E23752F00753040752D007531017582C61204CA80DB
:2001E200E375240C752924752A00752B40752800752C017582C612045422752E26752F003F
:20020200753040752D017531027582C61204CA74FFB52605758200805F7F008F068EF0054F
:20022200F07C017D008006EC2CFCED33FDD5F0F7AA267B00EA5204EB5205EC4D600774314D
:200242002FF58280330E8E07BE080040D0E52730E0057582398021E52730E10575822A8015
:2002620017E52730E205758230800DE52730E30575822380037582FF22AF82E4FDFEEF7046
:200282001DC006C005744CC0E0741FC0E07480C0E012013E158115811581D005D006C00609
:2002A200C0057408C0E0E4C0E07408C0E0E4C0E07408C0E0E4C0E07408C0E0E4C0E074087B
:2002C200C0E0E4C0E07462C0E0741FC0E07480C0E012013EE58124F3F58190A12075F007BA
:2002E200E41203EFD005D0067F00C007C006C0051201FCAC82D005D006D0078C03BCFF028D
:200302008003BB2A17902710E4F5F0C007C006C0051203EFD005D006D00780CEBB232AC0DE
:2003220006C0051201FCAC82D005D006BC2313902710E4F5F0C006C0051203EFD005D0064C
:2003420080DD8D828E830203EEEBFA3395E0FCC007C006C005C004C003C002C002C004740D
:2003620072C0E0741FC0E07480C0E012013EE58124FBF581D002D003D004D005D0068D1A8B
:200382008E1B90000AC004C003C002121555A882A983D002D003D004D007EA28F8EC39F985
:2003A200E824D0FDE934FFFEC007C006C005C0031201FCAC82D003D005D006D007ECB503FD
:2003C2001B902710E4F5F0C007C006C005C0031203EFD003D005D006D00780CC0FC3EF6491
:2003E20080948550030202EC8D828E8322AC82AD83AEF0FF780079007A007B00C3E89CE9CC
:200402009DEA9EEB9F500F08B8000909B900050ABA00E90B80E62220C7FDD2C530C3FDC2CF
:20042200C5C2C3228582C210C30280FB228582C2D2C410C30280FB2230C3FD85C282C2C304
:200442002230C3FDAFC2C2C3D2C410C30280FB8F8222AF82C007120419D00774FE5FF58233
:200462001204268528821204267F00AD2C7E001DBDFF011E8F037C00C3EB9DEC64808EF05E
:2004820063F08095F0501FEF2529FCE4352AFDAE2B8C828D838EF0121E7BF582C0071204A6
:2004A20026D0070F80C5AE2C7F001EBEFF011FEE2529FEEF352AFFAD2B8E828F838DF01285
:2004C2001E7BF58212042F22AF82C007120419D0078F0674FE5EF582C007120426852D8292
:2004E20012042F120419D00774014FF5821204267F00AD317E001DBDFF011E8F037C00C394
:20050200EB9DEC64808EF063F08095F0502ED2C2EF252EFCE4352FFDAE30C007C006C005E6
:20052200C00412043AAB82D004D005D006D0078C828D838EF0EB12153A0F80B6C2C2AE3192
:200542007F001EBEFF011FEE252EFEEF352FFFAD30C007C006C005120443AC82D005D0062D
:20056200D0078E828F838DF0EC12153A22753223752932752A00752B40752820752C0175A7
:200582008230120454753200752932752A00752B40752821752C01758230120454753200AF
:2005A200752932752A00752B40752822752C01758230120454221201127582201201251250
:2005C2000D8F120DBA120DBE120DF2120DAD7475C0E0741FC0E07480C0E012013E1581159E
:2005E200811581748FC0E0741FC0E07480C0E01217C4158115811581E4F53AF53BC3E53AA4
:200602009414E53B940040F5120AB8858247858348120C3DAC828C42120C97858243858377
:200622004485F045F5461201C374A9C0E0741FC0E07480C0E012013E15811581158174BEE0
:20064200C0E0741FC0E07480C0E012013E15811581158174D3C0E0741FC0E07480C0E0125E
:20066200013E158115811581120A64AD82BD230280961201C385333C85343D85333E853461
:200682003F74FFC3953CF5EC74FF953DF5FC74FFC3953EF5EA74FF953FF5FAC043C044C016
:2006A20045C04674E8C0E0741FC0E0120E21E58124FAF581AC427D00C004C0057401C0E07A
:2006C2007420C0E0120E21E58124FCF581C047C0487418C0E07420C0E0120E21E58124FC71
:2006E200F58112088DAC82AD83C005C0041208DA85824985834A120900E58275F00EA4F5D0
:200702008285F083751AFF751B00121ED785824B85834CD004D005E4F53AF53BC3E53A9430
:2007220014E53B940040F530B61D854951854A528C538D54854782854883C005C004120975
:2007420013D004D005801385333E85343F74FFC3953EF5EA74FF953FF5FA30B7118C828DA9
:2007620083C005C004120A08D004D005801385333C85343D74FFC3953CF5EC74FF953DF5FF
:20078200FCC005C0041201C3751A0A751B00854982854A83120DF8AE82AF83C006C00774B7
:2007A20031C0E07420C0E07480C0E012013EE58124FBF581D004D005C005C004C004C00597
:2007C2007446C0E07420C0E07480C0E012013EE58124FBF581C04BC04C745BC0E07420C0CF
:2007E200E07480C0E012013EE58124FBF581A83EA93FE4FEFFF51A751B90F51CF51D88822C
:2008020089838EF0EF1216DB85821A85831B85F01CF51D900064E4F5F012166DA882A983CB
:20082200AEF0FFD004D005751AFF751BFF853C82853D83C007C006C005C004C001C0001222
:200842000DF885821A85831B900064121555AA82AB83D000D001D004D005D006D007C000CC
:20086200C001C006C007C002C003C04BC04CC049C04AC004C0057470C0E07420C0E0120E18
:2008820021E58124F2F5810206E422754D5175294D752A00752B40752800752C0185408232
:2008A200120454E4F53AF53BC37405953AE4953B50F6752E4D752F00753040752D027531C1
:2008C200028540821204CAAF4D7E00AC4E7D00EC4EF582ED4FF58322752E4F752F0075303A
:2008E20040752D027531028541821204CAAF4F7E00AC507D00EC4EF582ED4FF58322AFAA6D
:2009020074DF5FF5AA43AA10E5AA30E5FB859C8222AE82AF83E4FCFDEEC39551FEEF955279
:20092200FFC374089E74878FF063F08095F05008EE24F0FEEF34F1FFC3EE94F8EF648094F8
:2009420078500874102EFE740E3FFF8E828F83C005C00412172DAA82AB83AEF0FFC002C0DB
:2009620003C006C0078543828544838545F0E546121307AA82AB83AEF0FFE58124FCF5814B
:200982008A828B838EF0EF12173AAE82AF83D004D005AA397B00C3E5539AE5549B5026AA79
:2009A200397B00EAC39553F51AEB9554F51BAA427B008A828B83C007C006121555AC82AD94
:2009C20083D006D007EE2533FEEF3534FFEEC39CF53EEF9DF53FC3E537953EE538953F5017
:2009E2000685373E85383FC3E53E9535E53F9536500685353E85363F74FFC3953EF5EA74B6
:200A0200FF953FF5FA22AE82AF83753C6C753D0CC3EE941EEF940050198E1A8F1B9000067C
:200A2200121555E5828583F024DCF53C740A35F0F53DC3E537953CE538953D5006753C34F9
:200A4200753D0DC3E53C9533E53D95345006753CDC753D0A74FFC3953CF5EC74FF953DF57D
:200A6200FC221201FCAF82E4F53AF53BC3E53A9405E53B940040F5BFFF171201FCAF82E476
:200A8200F53AF53BC3E53A9405E53B940050E880F38F06BFFF02801BC0061201FCAF82D055
:200AA20006E4F53AF53BC3E53A9405E53B940050E280F38E82221201C374C2C0E07420C0E5
:200AC200E07480C0E012013E15811581158174D7C0E07420C0E07480C0E012013E158115DE
:200AE20081158174ECC0E07420C0E07480C0E012013E1581158115817401C0E07421C0E0B8
:200B02007480C0E012013E158115811581120A64AF82BF2A028003BF23F3BF2A02800302C8
:200B22000BA21201C3740BC0E07421C0E07480C0E012013E1581158115817420C0E074216C
:200B4200C0E07480C0E012013E1581158115817435C0E07421C0E07480C0E012013E158153
:200B620015811581120A64AF82BF3102800DBF32028008BF33028003BF34E9BF31077D00D5
:200B82007E00020C17BF32077D847E03020C17BF33077D087E07020C177D8C7E0A020C1733
:200BA2001201C3744AC0E07421C0E07480C0E012013E158115811581120D26AD82AE838DF1
:200BC2001A8E1B90000A121555AD82AE83C374109D740E9E503F1201C374A9C0E0741FC061
:200BE200E07480C0E012013E1581158115817462C0E07421C0E07480C0E012013E15811531
:200C0200811581E4F53AF53BC3E53A9464E53B940040F5808BC006C005C005C0067477C0E9
:200C2200E07421C0E07480C0E01217C4E58124FBF581D005D0068D828E83221201C3748D5D
:200C4200C0E07421C0E07480C0E012013E15811581158174A2C0E07421C0E07480C0E01285
:200C6200013E158115811581120D26AE82AF83C007C006C006C00774B0C0E07421C0E07443
:200C820080C0E01217C4E58124FBF581D006D0078E828F83221201C3748DC0E07421C0E0AD
:200CA2007480C0E012013E15811581158174C2C0E07421C0E07480C0E012013E158115816F
:200CC2001581120D26AE82AF83C007C006C006C00774D1C0E07421C0E07480C0E01217C420
:200CE200E58124FBF581D006D0078E828F83121745AC82AD83AEF0FFE4C0E0C0E07420C047
:200D0200E07441C0E08C828D838EF0EF121DB8AC82AD83AEF0FFE58124FCF5818C828D8315
:200D22008EF0EF227555207556207557207F00C007120A64AE82D007BE2A02800DBE23023A
:200D42008008EF2455F8A606800EBE23028034BE2A06EF2455F8762EEF2455F987067D007B
:200D6200C007C006C0057472C0E0741FC0E07480C0E012013EE58124FBF581D0070FBF03DE
:200D82000040AC90005575F04012144E2253BDBF43A50143A504AF9074404FF59053A7BF21
:200DA200AFA7747F5FF5A743B0802275D10375AA8043AB0175AC062275E1272253D9F14339
:200DC200D90143D84043DAC243DCC243E608D2AF22C0E0C0D030DF10053AE4B53A02053BA5
:160DE200C2DF75E90075F97053D8C0D0D0D0E03275CF93D2C62220
:201F4C000A54797065206469676974733B20656E6420772F230020202020202563256325D5
:201F6C006325632563002563000D456D62656464656420436F6E74726F6C204361722E2EB0
:201F8C002E0A00456D62656464656420436F6E74726F6C204361722E2E2E0A0D00202020BB
:201FAC00202020202020202020202020202020202000205072657373202320746F20676F8C
:201FCC00206261636B200020507265737320616E7920746F20636F6E742E20000A0D2534FA
:201FEC002E3166202D20436F6D70617373204761696E2020000A0D253475202D2052616E7B
:20200C00676572204761696E202020000A0D253475202D204465736972656448656164698A
:20202C006E670A0D00253375202D2048656164696E672020202020202000253375202D20A4
:20204C0052616E67652020202020202020200025327556202D20426174746572792020209D
:20206C002020200052616E67653A2025303464202020436F6D706173733A20253034642023
:20208C002020426174746572793A20253034642020204D6F746F7250573A20253034642053
:2020AC0020205374656572696E6750573A2025303464200A0D0053656C656374202A207430
:2020CC006F2073656C65637420610068656164696E672E2053656C656374202320746F00A0
:2020EC006D616E75616C6C792074797065206120202020200068656164696E672E20004808
:20210C00656164696E677320617661696C61626C653A20002020202020312D3020202032FD
:20212C002D3930202020202000202020332D313830202020342D3237302020202000496E73
:20214C007075742068656164696E67206E6F773A2020202020002020496E76616C696420B5
:20216C0068656164696E67212020000A0D446573697265642048656164696E673A20257587
:20218C0000506C65617365207479706520696E2074686520200072616E676572206761698F
:2021AC006E3A20000A0D4761696E2052616E6765723A20257500636F6D7061737320676164
:1821CC00696E3A20000A0D4761696E20436F6D706173733A202575004A
:200DF8007A10E4FBFCE58225E0F582E58333F583EB33FBEC33FCEB951AF5F0EC951B4006EB
:090E1800FCABF0438201DADD229B
:200E2100C018858118E51824FDF8868318868218E493A3B42577C200C201C202C203C20426
:200E4100C20579087700C206E493A324C64017240A50157005B50802D205D204FAE775F0F5
:200E61000AA42AF780E2240A2430B46C04D20080D7B46804D20180D0B47303020EB9B46423
:200E810006121193020F15B47506121193020F35B4630518E6188017B47803020EF4B4662E
:200EA10003021049B42E0679097700809B6006121285020E3102129FC083C08286F018863B
:200EC1008318868218300419C205C082C083121E7B6007A31508E50870F4121270D083D0E3
:200EE10082121E7B6006A312128580F5D082D083020E31120F0C20010C120F0C30000612E8
:200F01000F0C120F0C121297020E31E6121275E618021276ED30E71CD203E9F42401F92075
:200F21000112EAF43400FA30000AEBF43400FBECF43400FC200110300008EB7024EC7021D4
:200F4100C200EA701CD201E97017200614300409E508600515081212707430121285020E3E
:200F610031C082C0831211AD300460790A30001DEB54F0703619EB540F703019EA54F070F3
:200F81002A19EA540F702419EF54F0701E790520010BEF540F701419EE54F0700E7903EE9F
:200FA100540F700719ED54F0700119E508A203994019F508C003C002C007C006C005121206
:200FC10070D005D006D007D002D003300319C003C002C007C006C005742D121285D005D067
:200FE10006D007D002D00320014030002CC005C006C0078A82EBF583121275E58312127655
:20100100E582121275E582121276D0E0F582121275E582D083D08280058D828E83EF12124A
:2010210076E583121275E58380038D82EE121276E582121275E582121276121297D083D0D7
:201041008230060122020E3130040EE508D39509F50850287508008023E6547FFA188603EA
:2010610008AE82AF839023B07D07E4932BA3E4933A5003A3DDF48D098E828F83C0001211C6
:2010810075C082C083EFB47E02801940112482FDC3EA33FAEB33FBEC33FCDDF48006F42428
:2010A1007F1213D875F01BE4F8FFFEFD902344E933F9EA33FAEB33FBEC33FC5017E4932DFB
:2010C100D4FD7401933ED4FE7402933FD4FF74039338D4F8A3A3A3A3D5F0D4E47C50FBFA33
:2010E100F9E509232354FC88831213D8ED29D4F50DEE3AD4F50CEF3BD4F50BE5833CD4F516
:201101000A92D5D083D082D000121175C000C3749E9F5005D000020E49C0821213D8D0820D
:2011210030D50FE92401F9E43AFAE43BFBE43CFC40E2D206120F3520040CE509600812114C
:20114100657003D509F4E5096015742E1212857800D20208E8121165121276E8B509F4D06E
:2011610000020E3114C31392D5240AF9E720D501C4540F22E618F9E618FC33E9339203FFBB
:201181006003430480E618FBE618FA7900C201D20022E6F9FD18200112AA01E6F91830000A
:2011A1000AAC02AB01E6FA18E6F91822E975F06484FE740AC5F084C445F0FD30010122EA9A
:2011C100540FF99021E4932DD4FDE94410933ED4FEEAC4540FF9902204932DD4FDE944101E
:2011E100933ED4FEE94420933400D4FF20000122EB540FF9902234932DD4FDE94410933E55
:20120100D4FEE94420933FD4FFE43400FAEBC4540FF9902264932DD4FDE94410933ED4FE65
:20122100E94420933FD4FFE94430933AD4FAEC540FF99022A47B00121243ECC4540FF990A7
:2012410022F4932DD4FDE94410933ED4FEE94420933FD4FFE94430933AD4FAE94440933BE1
:20126100D4FB22742030050274301212851508E50870F022C4540F7003300219D20224906B
:20128100D43440D4C083C082C000F582120125D000D082D083222002FC7430021285D01863
:0112A100222A
:2021E4000056126824803692480460167228844000020507101215172023252830333538C3
:20220400009692888480767268646056524844400040812263044586276809509132731437
:20222400000000010102020203030404040505060036720844801652882460963268044014
:20224400005510662176328742985308641975300006131926323945525865727885919859
:202264000076522804805632088460361288644000857157432814008671574329140086DE
:20228400000409141924293438434853586368720001020304050607080910111213141538
:2022A400001632486480961228446076920824400072441688603205774921936538108230
:2022C40000775533108866442199775432108865001633506783001734506784011834515E
:2022E400000000000000010101010101020202020056126824803692480460167228844070
:2023040000540963187227813691450054096318004387307417610448913579226609538E
:2023240000683605734210794715845221895826000205081013161821242629323437408D
:20234400000000500000002500005012000025060050120300255601501278002506390058
:202364001253190056760900288804001444020007220100046100005230000026150000AC
:202384006307000081030000910100009500000048000000240000001200000006000000A0
:1A23A4000300000001000000010000007DC5DDC334C2E0BE38BD86BBE4B9D1
:2012A200FB7A20E4FCFDFEFFE5822582F582E58333F583E5F033F5F0EB33FB4017DAE98085
:2012C20042E5822582F582E58333F583E5F033F5F0EB33FBEC33FCED33FDEE33FEEF33FFB4
:2012E200EC951AED951BEE951CEF951D4013EC951AFCED951BFDEE951CFEEF951DFF4382EE
:0513020001DABEEB2240
:201307001213AABC0003021772EF60FA30D502B2D1E583B4FF03021788E582B4FF030217E5
:2013270088258340072482400B0217722483145003021788F582EA8DF0A4A8F0EA8EF0A4DE
:2013470028F8E435F0F9EB8DF0A428E935F0F9E433CA8FF0A429F9EA35F0FAEBF88EF0A4F5
:2013670029F9EA35F0FAE433FBEC8DF0A429F9EA35F0FAE43BFBE88FF0A42AFAEB35F0FB9D
:20138700E433CCFD8EF0A42AFAEB35F0FBE43CFCED8FF0A42BFBEC35F0FC20E70312141B6B
:0313A700021751D9
:2013AA00AA82AB83A2F73392D1F5826002D2F7ACF0E58124F9F8E6FD08E6FE0886F008E6A6
:0E13CA00A2F73392D5F5836002D2F7AFF0227E
:06008000E478FFF6D8FD54
:2013D8006040F82582500274FFF582E824F8501ECCCBCAF9E4CC24F85014CBCAF9E4CB241D
:2013F800F8500BCAF9E4CA24F8500379002224086010F8C3EC13FCEB13FBEA13FAE913F9D0
:03141800D8F122E6
:20141B007804EC7011E58224F8500AF582E4C9CACBFCD8EF22EC7820058220E713D58201D0
:13143B0022C3E933F9EA33FAEB33FBEC33FCD8EA158222DE
:20144E00AD82AE83AFF07B007C008D008E018F02888289838AF0121E7BF50E6035C374B918
:20146E00850EF063F08095F04008E50E648094B05020888289838AF0121E7BF50E742DB51C
:20148E000E02800E742BB50E02800708B800C10980BE880589068A07888289838AF0121E80
:2014AE007BFAE4BA2D0104F9F87003BA2B050DBD00010E8D828E838FF0121E7BFA6058C3F3
:2014CE00EA648094B0405074B98AF063F08095F04045C0008B1A8C1B90000AC007C006C0E5
:2014EE0005C002C00012155585820F858310D000D002D005D006D007EAF93395E0FAE924F7
:20150E00D0F9EA34FFFAE9250FFBEA3510FC0DBD00010ED000809CE86009C3E49BFEE49CC4
:0C152E00FF80048B068C078E828F8322C6
:20005E007900E94400601B7A009023C9785175AF00E493F2A308B8000205AFD9F4DAF275EE
:02007E00AFFFD2
:1B153A0020F71130F6138883A88220F509F6A8837583002280FEF280F5F022B0
:1D155500E582851AF0A4C582C0F0851BF0A4D0F025F0C583851AF0A42583F5832222
:20157200C018858118C082058105810581E51824FBF8A9180909E6F70809E6F70809E6F7EF
:20159200A818080886820886830886F0121E7BFAA3121E7BFBA3121E7BFF74012AFCE43BDD
:2015B200FD8F06A818080886820886830886F0EC12153AA3ED12153AA3EE12153A8A828B59
:2015D200838FF0A81808E612153A851881D0182285821585831685F01775641575650075BD
:2015F200664085116785126885136985146A901572121896AE82AF83AB15AC16AD178B82A7
:201612008C838DF0E412153A8E828F8322C018858118E51824F8FF8F6AE51824FBFF8F648E
:20163200756500756640E51824F8F88667088668088669901572121896AE82AF83E518245E
:1B165200FBF886030886040886058B828C838DF0E412153A8E828F83D01822D2
:20166D00AAF0FBE582851AF0A4FCADF0E583851AF0A42DFDE435F0FEE582851BF0A42DFD04
:20168D00E5F03EFEE433FFEA851AF0A42EFEE5F03FFFE583851BF0A42EFEE5F03FFFE58278
:2016AD00851CF0A42EFEE5F03FFFEB851AF0A42FFFEA851BF0A42FFFE583851CF0A42FFF46
:0E16CD00E582851DF0A42F8EF08D838C822285
:200086007800E84400600A790175AF00E4F309D8FC7850E84400600C7901900001E4F0A318
:0400A600D8FCD9FAAF
:2016DB00FBC2D530E715D2D5E4C39582F582E49583F583E495F0F5F0E49BFBE51D30E717E9
:2016FB00B2D5E4C3951AF51AE4951BF51BE4951CF51CE4951DF51DEB1212A230D513FBE449
:12171B00C39582F582E49583F583E495F0F5F0E49B2208
:0D172D00AC83AB827A007900748E021EA09E
:0B173A007F8E121F15F58385F08222C0
:0C174500E4AC83AB82FAF9748E021ECD76
:20175100B98003EA13B34010EA2401FAE43BFBE43CFC50047C800582BC000EBB000BBA00DC
:2017710008E4F5F0F583F58222A2D1E582138CF092F78B838A8222E4F583F58275F080F49C
:0F179100A2D11322E4F583F58275F0C0747F2294
:2017A000C018858118120125D0182285826785836885F069E4F564F565F56685196A901794
:2017C000A0021896C018858118E51824FBFF8F6AE4F564F565F566E51824FBF8866708862E
:0D17E000680886699017A0121896D018228C
:2017ED00AF82C05AC05BC05C1217FA8007C058C0598F82221581158115810562E4B5620226
:20180D00056322AF8274302FFF24C6500A74072FFF3007034307208F820217EDE582FFC45C
:20182D00540FF582C007121810D007740F5FF58202181085821A855D1B855E1C855F1D85C3
:20184D00601EAA61751F20EA2AFAE51E235401FF8A064EFAE51B251BF51BE51C33F51CE564
:20186D001D33F51DE51E33F51EC3EA951A4008EAC3951AFA431B01D51FCD851B5D851C5E9A
:20188D00851D5F851E608A612285825885835985645A85655B85665CE4F562F563AD67AE46
:2018AD0068AF698D828E838FF0121E7BFC74012DF567E43EF5688F69ECFF7003021D99BF0B
:2018CD0025028003021D91C208C209C20AC20BC20CC20DC20EC20F756B00756C007CFFAA4F
:2018ED0067AB68AE698A828B838EF0121E7BFFA3AA82AB838A678B688E69BF25078F821222
:20190D0017ED80998F6E74D0256E5026E56E24C64020BCFF12E56C75F00AA4FD2F24D0F570
:20192D006C70C2D20980BEEC75F00AA42F24D0FC80B3BF2E07BCFFAD7C0080A98F05BD61DF
:20194D0000400CED248540075307DFD2078002C207BF2002806DBF2B028063BF2D02805990
:20196D00BF42028063BF43028068BF4403021B3BBF4603021B51BF48030218F2BF49030291
:20198D001B3BBF4A030218F2BF4C028040BF4F03021B42BF5003021AD0BF5302805CBF548E
:2019AD00030218F2BF5503021B47BF5803021B4CBF5A030218F2021B55D2080218F2D20AB1
:2019CD000218F2D20B0218F2D20D0218F2D20E0218F2300D0CE56A14FE8E6A8E01870780EF
:2019ED0011E56A24FEFE8E6A8E018705098706198D078F821217ED021B5EE56A24FDFE8E66
:201A0D006A8E01870309870509870619198B5D8D5E8E5F8B828D838EF0C004121DA0AD82BC
:201A2D00AE83D004BCFF028D0420082AC3ED956C5024E56CC39DF56CAE6C8E031EEB601495
:201A4D00758220C006C005C0041217EDD004D005D00680E68E6C8C06855D82855E83855FDE
:201A6D00F0121E7BFCFF602F8E041EC374808CF063F08095F050208F82C006C0051217EDD7
:201A8D00D005D006AA5DAB5EAC5F0ABA00010B8A5D8B5E8C5F80C1200803021B5EC3ED95BC
:201AAD006C4003021B5EE56CC39DF56CAE6C8E041EEC7003021B5C758220C0061217EDD078
:201ACD000680EBE56A24FDFC8C6A8C01870209870309870419198A5D8B5E8C5FAC5FBC80B5
:201AED000040047F438014BC600040047F50800BBC400040047F4980027F588F82C007123A
:201B0D0017ED75823A1217ED7582301217ED7582781217EDD007BF4902800BBF50028006A8
:201B2D00855E82121829855D821218298023D20C756B0A801C756B088017756B0A801275B2
:201B4D006B10800DD20F80098F821217ED80028E6C300F5CE56A24FCFE8E6A8E0187020942
:201B6D0087030987040987061919198A5D8B5E8C5F8E60755DBE755E23755F80855D6F8500
:201B8D005E70855F717401256FFAE43570FCAE718A5D8C5E8E5F856F828570838571F012CA
:201BAD001E7BFEFF70030218AA8F821217ED80CCE56B70030218AA756D77300D2DE56A142B
:201BCD00FC8C6A8C01E7FA3395E0FBFCFE8A5D8B5E8C5F8E60200C66AA5D7B007C007E0044
:201BED008A5D8B5E8C5F8E608054300E21E56A24FCFE8E6A8E0187020987030987040987C8
:201C0D00061919198A5D8B5E8C5F8E608030E56A24FEFE8E6A8E01870409870619EE339527
:201C2D00E0FBFA8C5D8E5E8B5F8A60200C10AA5DAB5E7C007E008A5D8B5E8C5F8E60300CEE
:201C4D0022E56030E71BC3E4955DFAE4955EFBE4955FFCE49560FE8A5D8B5E8C5F8E6080A5
:201C6D0002C20CD210A96D7E00756100856B82C006C001121840D001D00620100BE561C4EC
:201C8D00FCE7FB4CF7198002A7610EB210E55D455E455F456070D2896D8E05E56C70037571
:201CAD006C01200924200821ED04FEAC6CC3EE9C5015758220C006C005C0041217EDD0040B
:201CCD00D005D0061C80E68C6C300C0E75822DC0051217EDD005156C8023ED6020300A0EDB
:201CED0075822BC0051217EDD005156C800F300B0C758220C0051217EDD005156C2008221C
:201D0D00AE6C8E041EC3ED9C502B3009047C3080027C208C82C006C0051217EDD005D006C4
:201D2D0080E0C3ED956C5008E56CC39DF56C8007756C0080028E6CA96D8D068E051EED6090
:201D4D0026B21020100A09E7C4540FFD8D6180078705740F5DF561856182C006C0011218F0
:201D6D0010D001D00680D42008030218AAAE6C8E051EED70030218AA758220C0061217ED7A
:131D8D00D00680EB8F821217ED0218AA8562828563832221
:0B23BE003C4E4F20464C4F41543E0067
:181DA000AA82AB83121E7B6003A380F8C3E5829AF582E5839BF58322D0
:201DB8001213AA30D502B2D1BF0009BC0003021795021788BC0003021772E583B4FF0BE587
:201DD80082B4FF03021795021772E582B4FF03021788C395835007247F400B02177224806D
:201DF800145003021788F582C3ED9AEE9BEF9C40111582C3EA33F9EB33FAEC33FBE433FCE8
:201E18008005E4CCCBCAF9C08275F019C3E99DEA9EEB9FEC9400D5F002802D400EE99DF90B
:201E3800EA9EFAEB9FFBEC9400FCC3B3E833F8E58233F582E58333F583C3E933F9EA33FA6B
:201E5800EB33FBEC33FC80C4B3E4F938FAE43582FBE43583FCD082500405827C8012141B98
:031E7800021769E5
:0D005100758177121F0FE582600302004EDB
:1C1E7B0020F71430F6148883A88220F507E6A88375830022E280F7E49322E02276
:201E9700FCABF0AA83A982749EF582C2D1EC30E716D2D1E9F42401F9EAF43400FAEBF4344A
:0D1EB70000FBECF43400FC12141B02175168
:131EC400FCABF0AA83A982749EC2D1F58212141B02175155
:201ED700C2D5E58330E70DD2D5E4C39582F582E49583F583E51B30E70DB2D5E4C3951AF582
:181EF7001AE4951BF51B120DF830D50BE4C39582F582E49583F5832223
:041F0F0075820022B5
:201F13007F9E121F3A30D103021772C3EF9582500974FFF5F0F583F5822279001213D8890D
:071F3300828A838BF0EC228F
:121F3A00AA82AB83A2F73392D1F5826002D2F7ACF022AC
:00000001FF
